:04000000FEEF3FF0E0
:105700001200400E1200800E1200016E01C0C1FF97
:10571000C26A8F0EC06E1200C5809EA692EF2BF05B
:1057200094EF2BF08DEF2BF09E961200C5849EA671
:105730009CEF2BF09EEF2BF097EF2BF09E96120034
:10574000016E01C0C9FF9EA6A8EF2BF0AAEF2BF0B7
:10575000A3EF2BF09E96C5501200800E016E000E36
:10576000026E046A000E036E040E066E000E056ED5
:10577000E4EC2BF01200026E8CEC2BF0F00EA0EC9F
:105780002BF0000EA0EC2BF00250A0EC2BF096ECCE
:105790002BF012001E0E206E1BC021F0246A000E9A
:1057A000236E2B6A000E2A6E210E156E1CC016F099
:1057B0001DC017F0200E186E20EC2CF01B50232477
:1057C000D96EDA6ADF6A120001C007F002C008F081
:1057D000F2EF2BF007C0D9FF08C0DAFF03C0DFFFEC
:1057E000074A082A0506D8A00606052806E1062865
:1057F000D8A4FDEF2BF0FFEF2BF0EAEF2BF0120017
:10580000016E9382938001C0C7FF280EC66EC56AE1
:10581000800E0118D8A40FEF2CF011EF2CF015EF2B
:105820002CF0130EC86E1FEF2CF00150D8A41BEF04
:105830002CF01DEF2CF01FEF2CF0040EC86E1200A0
:1058400016C019F017C01AF02EEF2CF015C009F091
:10585000190E0A6E18C00BF05EEC30F019C0F6FF9E
:105860001AC0F7FF0800F5500009D8A43AEF2CF051
:105870003CEF2CF026EF2CF0166A000E156E12008D
:10588000036E0D0E036447EF2CF049EF2CF04EEF42
:105890002CF0026A000E016E60EF2CF0C26A034425
:1058A000E846FC0BC26EC280C282C2B25AEF2CF034
:1058B0005CEF2CF055EF2CF0C3CF01F0C4CF02F019
:1058C0001200BA0EF66E670EF76E000EF86E00EE5E
:1058D00080F014EE00F00900F5CFEEFFE550E15046
:1058E000FAE1E250F8E100EE60F0200EEE6AE80620
:1058F000FDE100EE3DF0200EEE6AE806FDE1000E4F
:10590000F86E0001D0EF2FF001C003F002C004F0E8
:105910008CEF2CF0014A022A01C0F6FF02C0F7FF0B
:10592000F86A070EF76403D00800F55005D0F6CFEB
:10593000E9FFF7CFEAFFEF500009D8A4A2EF2CF05F
:10594000A4EF2CF08AEF2CF00350015C016E0450A0
:105950000258026E120003500410D8B4B2EF2CF0BB
:10596000B4EF2CF0D8EF2CF0010E056EBCEF2CF04C
:10597000D89003360436052A04AEC1EF2CF0C3EFED
:105980002CF0B8EF2CF00350015C04500258D8A062
:10599000CCEF2CF0CEEF2CF0D2EF2CF00350015EC8
:1059A0000450025AD89004320332052EC3EF2CF073
:1059B00001C001F002C002F0120001C03DF002C0BF
:1059C0003EF001C0F6FF02C0F7FF0800F5CF3FF040
:1059D000010E0124036E000E0220046E03C0F6FFC8
:1059E00004C0F7FF0800F5CF40F0020E0124036E5B
:1059F000000E0220046E03C0F6FF04C0F7FF08008B
:105A0000F5CF41F0030E0124036E000E0220046E58
:105A100003C0F6FF04C0F7FF0800F5CF42F0436A69
:105A20001200066A000E056E03500410D8B41BEF76
:105A30002DF01DEF2DF045EF2DF0010E076E25EF37
:105A40002DF0D89003360436072A04AE2AEF2DF045
:105A50002CEF2DF021EF2DF0D890053606360350AF
:105A6000015C04500258D8A038EF2DF03AEF2DF029
:105A70003FEF2DF00350015E0450025A0580D8908C
:105A800004320332072E2CEF2DF005C001F006C0C2
:105A900002F012001350155C1650800A1A6E145052
:105AA000800A1A58D8B057EF2DF059EF2DF075EF46
:105AB0002DF013C01BF014C01CF015C013F016C05D
:105AC00014F01BC015F01CC016F075EF2DF013C0BC
:105AD00009F014C00AF017C00BF018C00CF019C080
:105AE0000DF01EEC31F0134A142A1350155C1650B9
:105AF000800A1A6E1450800A1A58D8B082EF2DF01E
:105B000084EF2DF067EF2DF012001350155C165046
:105B1000800A1A6E1450800A1A58D8B092EF2DF0ED
:105B200094EF2DF0B0EF2DF013C01BF014C01CF05B
:105B300015C013F016C014F01BC015F01CC016F0F1
:105B4000B0EF2DF017C009F018C00AF013C00BF029
:105B500014C00CF019C00DF01EEC31F0134A142AD9
:105B60001350155C1650800A1A6E1450800A1A5889
:105B7000D8B0BDEF2DF0BFEF2DF0A2EF2DF0120049
:105B80001DC013F01EC014F021C015F022C016F085
:105B90001FC017F020C018F025C019F04AEC2DF0F6
:105BA0001DC013F01EC014F021C015F022C016F065
:105BB00023C017F024C018F025C019F04AEC2DF0CE
:105BC0001FC013F020C014F023C015F024C016F03D
:105BD0001DC017F01EC018F025C019F085EC2DF07F
:105BE0001FC013F020C014F023C015F024C016F01D
:105BF00021C017F022C018F025C019F085EC2DF057
:105C00001200210EBBEC2BF0000EBBEC2BF07F0E34
:105C1000BBEC2BF0220EBBEC2BF0000EBBEC2BF000
:105C2000070EBBEC2BF0066A000E056E8CEC2BF019
:105C3000780EA0EC2BF0400EA0EC2BF0076A800E43
:105C4000036E000E046E07500326000E042205505A
:105C50000324D96E06500420DA6EDF50A0EC2BF03E
:105C6000072A0F0E076437EF2EF039EF2EF01FEFE3
:105C70002EF096EC2BF0100E0526000E0622040ED8
:105C8000065CD8A046EF2EF048EF2EF016EF2EF06F
:105C900012000350D8B44FEF2EF051EF2EF059EF11
:105CA0002EF00350D8A457EF2EF059EF2EF05EEFF0
:105CB0002EF0015080EC2BF09DEF2EF00350D96EAA
:105CC000DA6A090ED926DE50DE10D8B46AEF2EF05B
:105CD0006CEF2EF085EF2EF00350D96EDA6A090EC4
:105CE000D9260350E16EE26A020EE126DE50E65C40
:105CF000E650800A086EDE50800A0858D8B083EF5C
:105D00002EF085EF2EF09DEF2EF00350D96EDA6A5B
:105D1000020ED926DF50046E0350D96EDA6ADF50C6
:105D20000424D96EDA6A01C0DFFF0350D96EDA6A43
:105D3000020ED926DE2A000EDD221200020E0A6EA5
:105D4000040E096EBA0EE82EFED7092EFCD70A2ED5
:105D5000FAD700D0AE0EBBEC2BF0D50EBBEC2BF07F
:105D6000800EBBEC2BF0A80EBBEC2BF03F0EBBEC77
:105D70002BF0D30EBBEC2BF0000EBBEC2BF0400E47
:105D8000BBEC2BF08D0EBBEC2BF0140EBBEC2BF010
:105D9000200EBBEC2BF0000EBBEC2BF0A10EBBECED
:105DA0002BF0C80EBBEC2BF0DA0EBBEC2BF0120E76
:105DB000BBEC2BF0810EBBEC2BF0CF0EBBEC2BF031
:105DC000D90EBBEC2BF0F10EBBEC2BF0DB0EBBECD9
:105DD0002BF0400EBBEC2BF0A40EBBEC2BF0A60E70
:105DE000BBEC2BF02E0EBBEC2BF0AF0EBBEC2BF074
:105DF000ADEC2BF001EC2EF01200066A04BE05EFAC
:105E00002FF003EF2FF00BEF2FF0036C041ED8B030
:105E1000042A010E066E02BE12EF2FF010EF2FF0D3
:105E200018EF2FF0016C021ED8B0022A010E061ADC
:105E3000086A000E076E03500410D8B422EF2FF04A
:105E400024EF2FF04CEF2FF0010E056E2CEF2FF00A
:105E5000D89003360436052A04AE31EF2FF033EF25
:105E60002FF028EF2FF0D890073608360350015C4A
:105E700004500258D8A03FEF2FF041EF2FF046EF2B
:105E80002FF00350015E0450025A0780D89004326C
:105E90000332052E33EF2FF00650D8B452EF2FF017
:105EA00054EF2FF058EF2FF0076C081ED8B0082AD7
:105EB00007C001F008C002F0120035C001F036C082
:105EC00002F084EC2CF001503A6EFE0E31183210C4
:105ED000D8A46DEF2FF06FEF2FF07DEF2FF03A5039
:105EE0003F02F3CF37F0F4CF38F037508008316EEF
:105EF0003850D8A0E82A0008326E31283210D8A4D1
:105F000084EF2FF086EF2FF09DEF2FF03A503F02F5
:105F1000F3CF37F0F4CF38F037508008016E3850A7
:105F2000D8A0E82A0008026E046A020E036EFDEC97
:105F30002EF001C031F002C032F0396AC6EF2FF006
:105F400039503F02F3CF37F0F4CF38F031503724D7
:105F5000136E32503820146E33C015F034C016F072
:105F600035C0F6FF36C0F7FFF86A070EF76403D0B6
:105F70000800F55005D0F6CFE9FFF7CFEAFFEF5064
:105F8000176EF1EC31F0354A362A392A3A50395C2D
:105F9000D8A0CDEF2FF0CFEF2FF0A0EF2FF0120011
:105FA000720ED36E0E0E85EC2BF0959E8C9E800E9D
:105FB00000EC2CF09EEC2EF09F0E016E770E026E20
:105FC000DDEC2CF0326A1E0E316E346A000E336E38
:105FD000E20E356E7F0E366E5DEC2FF01E6A060EF9
:105FE0001D6E206A140E1F6E226A790E216E246ABD
:105FF0003F0E236E010E256EC0EC2DF001EC2EF04D
:10600000000E40EC2CF001C03BF002C03CF0490E09
:106010001B6EF60E1C6E7F0E1D6E3BC01EF03CC04C
:106020001FF0CAEC2BF0BB0E016E6B0E026EDDECA6
:106030002CF0326A1E0E316E346A1A0E336E490E1F
:10604000356E366A5DEC2FF03CBE30EF30F0850ED9
:106050003B5C030E3C58D8A030EF30F032EF30F00C
:1060600047EF30F08C8E930E016E7D0E026EDDECEC
:106070002CF0326A1E0E316E346A320E336ED80E38
:10608000356E7F0E366E5DEC2FF0FEEF2FF08C9E9E
:10609000930E016E7D0E026EDDEC2CF0326A1E0E48
:1060A000316E346A320E336EEC0E356E7F0E366E04
:1060B0005DEC2FF0FEEF2FF0FEEF3FF00A50D96EAF
:1060C000DA6ADECFF6FFDDCFF7FF0800F550250ACC
:1060D000D8A46DEF30F06FEF30F00CEF31F00A50D4
:1060E000D96EDA6ADE2A000EDD22456A000E446EA1
:1060F00044C048F0466847680A50D96EDA6ADECF75
:106100000EF0DDCF0FF00EC0F6FF0FC0F7FF080056
:10611000F550750AD8A48FEF30F091EF30F004EF0E
:1061200031F00B50D96EDA6A020EDF26DF5CD96ED1
:10613000DA6ADECF10F0DECF11F0010E0E240C6E05
:10614000000E0F200D6E0A50D96EDA6A0CC0DEFF09
:106150000DC0DDFFF8EF30F0200E146E1406145061
:10616000600FD96EDA6A10C001F011C002F0046A43
:106170000A0E036EABEC2CF00150300FDF6E10C036
:1061800001F011C002F0046A0A0E036E11EC2DF04A
:1061900001C010F002C011F010501110D8B4D3EFAC
:1061A00030F0D5EF30F0EDEF30F01450D8A4DBEF45
:1061B00030F0DDEF30F0AEEF30F0EDEF30F01450B6
:1061C000600FD96EDA6ADF500C6E0C50016E026AF5
:1061D00009C003F049EC2EF0142A200E1418D8A49C
:1061E000F4EF30F0F6EF30F0DFEF30F01DEF31F08C
:1061F0000EC0F6FF0FC0F7FF0800F550750AD8B4BF
:10620000ACEF30F004EF31F00A50D96EDA6ADE2AD2
:10621000000EDD221DEF31F00A50D96EDA6ADECFB2
:10622000F6FFDDCFF7FF0800F550016E026A09C0E6
:1062300003F049EC2EF004EF31F012000ABE23EF18
:1062400031F025EF31F0F0EF31F083EC2BF00E6EF2
:106250000F6A0E50095C0A50800A106E0F50800AB7
:106260001058D8B036EF31F038EF31F0F0EF31F0B0
:106270000CBE3DEF31F03FEF31F0F0EF31F081EC4B
:106280002BF00E6E0F6A0E500B5C0C50800A106ED5
:106290000F50800A1058D8A050EF31F052EF31F073
:1062A000E1EF31F0F0EF31F00BC00EF0070E0E16FB
:1062B000010E0F6E0E2A5FEF31F0D8900F360E2EC2
:1062C0005DEF31F00BC001F00CC002F0046A080E63
:1062D000036EFDEC2EF0070ED89001360236E82E44
:1062E0006CEF31F0800E0124106E000E0220116E52
:1062F00009501024D96E0A501120DA6E0F50DF12A7
:10630000F0EF31F00BC00EF0070E0E16010E0F6EFF
:106310000E2A8DEF31F0D8900F360E2E8BEF31F024
:106320000F50FF0A106E0BC001F00CC002F0046A9F
:10633000080E036EFDEC2EF0070ED89001360236E3
:10634000E82E9DEF31F0800E0124116E000E022028
:10635000126E09501124D96E0A501220DA6E1050B4
:10636000DF16F0EF31F00BC00EF0070E0E16010E27
:106370000F6E0E2ABEEF31F0D8900F360E2EBCEF06
:1063800031F00BC001F00CC002F0046A080E036E7D
:10639000FDEC2EF0070ED89001360236E82ECBEF3A
:1063A00031F0800E0124106E000E0220116E095093
:1063B0001024D96E0A501120DA6E0F50DF1AF0EF58
:1063C00031F00D50000AD8B482EF31F0010AD8B490
:1063D00054EF31F0030AD8B4B3EF31F0F0EF31F0FD
:1063E00012002D6A000E2C6E2F6A000E2E6E216A8E
:1063F000000E206E40C018F0070E1816D8A403EF48
:1064000032F005EF32F005EF33F040C001F0026AE0
:10641000046A080E036EFDEC2EF03F50186E196AE8
:1064200001501802F3CF1AF0F4CF1BF01902F35009
:106430001B2602501802F3501B26415017C01CF0B7
:106440001D6A1C5E000E1D5A1A501C02F3CF1EF06E
:10645000F4CF1FF01D02F3501F261B501C02F350F7
:106460001F26040E1E24266E000E1F20276E2D6A86
:10647000000E2C6EF0EF32F02F6A000E2E6EE0EF61
:1064800032F03F502C02F3CF18F0F4CF19F02D0268
:10649000F350192618503D241A6E19503E201B6ED9
:1064A00026501A2627501B222E501A262F501B2208
:1064B0001AC0F6FF1BC0F7FF0800F550206E216AD6
:1064C000306A30C018F0010E196E000E1A6E182ACC
:1064D0006DEF32F0D89019361A36182E6AEF32F076
:1064E0002050191621501A1619501A10D8B47BEFE3
:1064F00032F07DEF32F0CBEF32F04350D8A483EF8F
:1065000032F085EF32F0A8EF32F02E501324096EEE
:106510002F5014200A6E30502CC018F02DC019F0E6
:10652000D89018361936D89018361936D8901836AB
:1065300019361826000E1922155018240B6E165005
:1065400019200C6E010E0D6E1EEC31F0D5EF32F0FD
:106550002E501324096E2F5014200A6E30502CC078
:1065600018F02DC019F0D89018361936D890183672
:106570001936D890183619361826000E19221550DB
:1065800018240B6E165019200C6E000E0D6E1EECAA
:1065900031F0D5EF32F04350D8A4D1EF32F0D3EF41
:1065A00032F085EF32F0A8EF32F0302A070E306477
:1065B000DCEF32F0DEEF32F061EF32F02E4A2F2ABC
:1065C0003F50186E196A18502E5C19502F58D8A0D9
:1065D000ECEF32F0EEEF32F041EF32F02C4A2D2AA0
:1065E00040C001F0026A046A080E036EFDEC2EF052
:1065F00001502C5C02502D58D8A001EF33F003EF6E
:1066000033F03CEF32F0DCEF33F03F504002F3CF99
:1066100001F0F4CF02F0046A080E036EFDEC2EF0D8
:10662000415017C018F0196A185E000E195A01502F
:106630001802F3CF1AF0F4CF1BF01902F3501B2607
:1066400002501802F3501B26040E1A24266E000E68
:106650001B20276E26503D24186E27503E20196EB1
:1066600018C0F6FF19C0F7FF0800F550226E236A24
:10667000256A070E246E296A000E286ECAEF33F0D1
:106680002B6A000E2A6EB6EF33F024C018F0010E0C
:10669000196E000E1A6E182A51EF33F0D890193681
:1066A0001A36182E4EEF33F02250191623501A16B0
:1066B00019501A10D8B45FEF33F061EF33F08DEF5B
:1066C00033F04350D8A467EF33F069EF33F07BEF3A
:1066D00033F028501324096E295014200A6E2A50D2
:1066E00015240B6E2B5016200C6E010E0D6E1EEC39
:1066F00031F097EF33F028501324096E29501420FD
:106700000A6E2A5015240B6E2B5016200C6E000EAC
:106710000D6E1EEC31F097EF33F04350D8A493EF99
:1067200033F095EF33F069EF33F07BEF33F024066D
:10673000D8A0250625BEA1EF33F09FEF33F0B4EFCC
:1067400033F0256A070E246E264A272A26503D2458
:10675000186E27503E20196E18C0F6FF19C0F7FFBB
:106760000800F550226E236A2A4A2B2A4050186EE0
:10677000196A18502A5C2B50800A1A6E1950800A28
:106780001A58D8A0C6EF33F0C8EF33F045EF33F016
:10679000284A292A3F50186E196A1850285C295037
:1067A000800A1A6E1950800A1A58D8A0DAEF33F00E
:1067B000DCEF33F040EF33F0120000000000000087
:1067C00000000000000000000000000000000000C9
:1067D00000000000000000000000000000000000B9
:1067E00000000000000000000000000000000000A9
:1067F0000000000000000000000000000000000099
:106800000000000000000000000000000000000088
:106810000000000000000000000000000000000078
:106820000000000000000000000000000000000068
:106830000000000000000000000000000000000058
:1068400000000000FCFCFC0C0C0C0C0C0C0000C04C
:10685000C0C080C0C0C0C0800080C0C0C0C08000B8
:10686000000000FEFEFE80C0C0C0C0C0800000006E
:10687000008080C0C0C0C0C080000000008080C018
:10688000C0C0C080FEFEFE0000008080C0C0C0C04E
:1068900080FEFEFE0000008080C0C0C0C0C080003E
:1068A0000000008080C0C0C0C080FEFEFE0000006E
:1068B00000000000000000000000000000000000D8
:1068C00000000000FFFFFF8383838383800000FFBD
:1068D000FFFF01000001FFFFFF01000001FFFFFFBC
:1068E000000000FFFFFFC1808080C1FFFF3E00006D
:1068F0003EFFFFCD8C8C8C8FCFCF00003EFFFFC1C1
:10690000808080C1FFFFFF00003EFFFFC1808080CC
:10691000C1FFFFFF00003EFFFFCD8C8C8C8FCFCFDF
:1069200000003EFFFFC1808080C1FFFFFF0000002C
:106930000000000000000000000000000000000057
:10694000000000000101010101010101010000013D
:10695000010100000000010101000000000101012F
:106960000000000101010001010101000000000020
:10697000000000010101010101000000000001010F
:1069800001010100010101000000000101010101FC
:1069900000010101000000000001010101010100EE
:1069A00000000000010101010100010101000000DF
:1069B00000000000000000000000000000000000D7
:1069C000000000FCFCFC000000000000008080C013
:1069D000C0C0C0C080000000FEFEFE80C0C0C0C0BD
:1069E000C080000000008080C0C0C0C0C0808000A7
:1069F0000000C0C0C080C0C0C00000008080C0C017
:106A0000C0C0C0800000C0C0F8F8F8C0C0C000001E
:106A10008080C0C0C0C0C08080000000C0C0C080F6
:106A2000C0C0C040C0C0800000000080C0C04000A6
:106A30000000000000000000000000000000000056
:106A4000000000FFFFFF80808080800070F9FD9CC7
:106A50008C8CCCFFFFFF0000FFFFFFC1808080C156
:106A6000FFFF3E00003EFFFFC1808080C1FFFF3E70
:106A70000000FFFFFF03010101000070F9FD9C8C85
:106A80008CCCFFFFFF000000FFFFFF808080003EF6
:106A9000FFFFC1808080C1FFFF3E0000FFFFFF03BA
:106AA00001010100030F3FFEF8C0FCFF1F030000BF
:106AB00000000000000000000000000000000000D6
:106AC00000000001010101010101010000000101BC
:106AD00001010001010100000101010001010101AA
:106AE00000000000000000000101010101000000A1
:106AF0000000010101000000000000000001010190
:106B0000010001010100000000010101010100007C
:106B1000000001010101010000000000010101006D
:106B2000000000000000181D1F0F030000000000FF
:106B30000000000000000000000000000000000055
:106B40000000000000000000000000000000000045
:106B50000000000000000000000000000000000035
:106B60000000000000000000000000000000000025
:106B70000000000000000000000000000000000015
:106B80000000000000000000000000000000000005
:106B900000000000000000000000000000000000F5
:106BA00000000000000000000000000000000000E5
:106BB00000000000000000000000001010205F0036
:106BC00000000000000000000000000000000000C5
:106BD00000000000000000000000000000000000B5
:106BE000000000F8FCFCFCF80000000000000000C1
:106BF000000000007373730000000000000000003C
:106C00000000001E3E3E0000003E3E1E0000000050
:106C10000000000000000000000000000000000074
:106C2000303030FEFE30303030FEFE30303000008C
:106C30000C0C0C7F7F0C0C0C0C7F7F0C0C0C0000E0
:106C40000000F0F898FE9898FE9898180000000050
:106C500000001819197F19197F191F0F0000000073
:106C600000000038383880C0E070380000000000B4
:106C70000000001C0E0703011C1C1C00000000008B
:106C8000000038FCC4C4FC38000000800000000094
:106C900000001E3F2121333F1E1E3723000000004D
:106CA000000000203C3C1C00000000000000000030
:106CB00000000000000000000000000000000000D4
:106CC000000000C0E0F0381C0C04040000000000CC
:106CD00000000003070F1C383020200000000000D7
:106CE00000000004040C1C38F0E0C00000000000AC
:106CF000000000202030381C0F07030000000000B7
:106D000000808890E0E0FCFCE0E0908880000000DB
:106D10000001110907073F3F0707091101000000A3
:106D2000000000808080F0F0808080000000000083
:106D30000000000101010F0F01010100000000002F
:106D40000000000000000000000000000000000043
:106D500000000040787838000000000000000000CB
:106D60000000808080808080808080800000000023
:106D70000000010101010101010101010000000009
:106D80000000000000000000000000000000000003
:106D9000000000003838380000000000000000004B
:106DA000000000000000000080C0E070381C0000FF
:106DB00000002030381C0E07030100000000000016
:106DC0000000F8FCFC0484E474FCFCF80000000003
:106DD00000001F3F3F2E2721203F3F1F00000000E3
:106DE0000000606060F0FCFC00000000000000009B
:106DF00000002020203F3F3F202020000000000016
:106E00000000181C1C040484CCFC78300000000036
:106E1000000030383C2E272321383838000000008D
:106E20000000181C1C848484CC7C78300000000096
:106E30000000183838212121333E1E0C00000000CC
:106E4000000080C0603018FCFCFC00000000000066
:106E5000000003030323233F3F3F232300000000E0
:106E60000000FCFCFC848484848404040000000092
:106E70000000193939212121333F1F0E0000000085
:106E80000000E0F0F89C8C84848480000000000006
:106E900000001F3F3F212121213F3F1F0000000034
:106EA00000003C3C3C0404040484FCFC7C00000026
:106EB0000000000000383C3E070301000000000015
:106EC0000000787CFCC4C48484FC7C780000000052
:106ED00000001E3E3F212123233F3E1E00000000F4
:106EE0000000F8FCFC84848484FCFCF800000000B2
:106EF0000000000121212131391F0F07000000008F
:106F00000000000000707070000000000000000031
:106F100000000000000E0E0E000000000000000047
:106F20000000000000707070000000000000000011
:106F300000000000101E1E0E0000000000000000F7
:106F4000000080C0E070381C0E0602000000000047
:106F500000000103070E1C387060400000000000B4
:106F600000606060606060606060606060000000A1
:106F700000060606060606060606060606000000C9
:106F8000000002060E1C3870E0C080000000000007
:106F90000000406070381C0E070301000000000074
:106FA0000000181C0C0E0686CEFC7C380000000089
:106FB0000000000000007373730000000000000078
:106FC0000000FCFEFE0202C2C2C2FEFEFC00000087
:106FD00000003F3F7F606063636363430300000022
:106FE0000000E0F0F81C0C0C1CF8F0E000000000C1
:106FF00000003F3F3F020202023F3F3F000000000F
:10700000000004FCFCFC848484FCFC78000000008C
:107010000000203F3F3F2121213F3F1E0000000094
:107020000000F0F8FC0C0404041C1C180000000014
:1070300000000F1F3F3020202038381800000000CB
:10704000000004FCFCFC04040CFCF8F00000000050
:107050000000203F3F3F2020303F1F0F0000000076
:10706000000004FCFCFC848484C4CC1C00000000F0
:107070000000203F3F3F2121212333380000000042
:10708000000004FCFCFC848484C4CC1C00000000D0
:107090000000203F3F3F21010103030000000000EA
:1070A0000000F0F8FC0C0404043C3C380000000034
:1070B00000000F1F3F302022223E3E3E0000000015
:1070C0000000FCFCFC808080FCFCFC000000000058
:1070D00000003F3F3F0101013F3F3F000000000033
:1070E0000000000404FCFCFC04040000000000009C
:1070F00000000020203F3F3F202000000000000053
:107100000000000000000404FCFCFC04040000007B
:10711000001E1E3E202020203F3F1F0000000000D8
:10712000000004FCFCFCC0E0703C1C0C00000000F3
:107130000000203F3F3F03070E3C383000000000B6
:10714000000004FCFCFC0400000000000000000043
:107150000000203F3F3F20202030383C000000004E
:107160000000FCFCFC78F0E0F078FCFCFC00000087
:1071700000003F3F3F00000100003F3F3F00000094
:107180000000FCFCFC70E0C08000FCFCFC00000087
:1071900000003F3F3F00000103073F3F3F0000006A
:1071A0000000E0F0F81C0C0C0C1CF8F0E0000000F3
:1071B0000000070F1F38303030381F0F0700000065
:1071C000000004FCFCFC848484FCFC7800000000CB
:1071D0000000203F3F3F21010101010000000000AD
:1071E0000000E0F8F81C0C040C1CF8F8E0000000AB
:1071F0000000071F1F18185C5E7E7F7F470000009D
:10720000000004FCFCFC848484FCFC78000000008A
:107210000000203F3F3F0101033F3F3C00000000D2
:10722000000078FCFC84848484BC3C3800000000AE
:1072300000001C3C3D212121213F3F1E0000000099
:1072400000001C0C0404FCFCFC04040C1C000000EA
:107250000000000020203F3F3F20200000000000F1
:107260000000FCFCFC000000FCFCFC000000000036
:1072700000001F3F3F2020203F3F1F000000000074
:107280000000FCFCFC000000FCFCFC000000000016
:107290000000070F1F3830381F0F070000000000E4
:1072A0000000FCFCFC0000800000FCFCFC00000076
:1072B0000000030F3F3C3C0F3C3C3F0F030000002D
:1072C00000001C3C7CE0C0E07C3C1C000000000096
:1072D0000000383C3E0703073E3C38000000000039
:1072E00000007CFCFC800080FCFC7C0000000000B6
:1072F00000000020213F3F3F21200000000000004F
:1073000000003C1C0C0484C4E47C3C1C0000000015
:107310000000383C3E2723212030383C000000008C
:1073200000000000FCFCFC04040404000000000059
:10733000000000003F3F3F20202020000000000010
:1073400000001C3870E0C080000000000000000059
:107350000000000000000103070E1C183020200070
:107360000000000004040404FCFCFC000000000019
:1073700000000000202020203F3F3F0000000000D0
:1073800000002030381C0E0E1C3830200000000099
:1073900000000000000000000000000000000000ED
:1073A00000000000000000000000000000000000DD
:1073B000C0C0C0C0C0C0C0C0C0C0C0C0C0C0C0008D
:1073C00000000C0C3C303000000000000000000009
:1073D00000000000000000000000000000000000AD
:1073E0000000004040404040C0C08000000000005D
:1073F00000001C3E3E2222223F1F3F2000000000D2
:10740000000004FCFCFC404040C0C08000000000C4
:107410000000203F1F3F2020203F3F1F00000000B2
:10742000000080C0C0404040C0C08000000000009C
:1074300000001F3F3F2020203939190000000000C4
:10744000000080C0C0404044FCFCFC040000000080
:1074500000001F3F3F2020203F1F3F200000000072
:10746000000080C0C0404040C0C08000000000005C
:1074700000001F3F3F2222223B3B1B000000000078
:1074800000008080F8FCFC849C9C18000000000038
:10749000000021213F3F3F212101000000000000AA
:1074A000000080C0C0404040C080C04000000000DC
:1074B000000047CFDF989898FFFF7F000000000092
:1074C000000004FCFCFC804040C0C08000000000C4
:1074D0000000203F3F3F0100003F3F3F0000000011
:1074E000000000404040DCDCDC0000000000000048
:1074F0000000002020203F3F3F202020000000000F
:107500000000000000404040DCDCDC000000000027
:1075100000002060E08080C0FFFF7F0000000000CE
:10752000000004FCFCFC000080C0C0400000000023
:107530000000203F3F3F02070F3D383000000000B1
:10754000000000040404FCFCFC000000000000003B
:107550000000002020203F3F3F20202000000000AE
:107560000000C0C0C04040C04040C0C0800000001B
:1075700000003F3F3F00003F00003F3F3F00000052
:107580000000C0C0C0404040C0C0800000000000FB
:1075900000003F3F3F0000003F3F3F000000000071
:1075A000000080C0C0404040C0C08000000000001B
:1075B00000001F3F3F2020203F3F1F000000000031
:1075C000000040C080C0404040C0C08000000000BB
:1075D000000080FFFFFF9010101F1F0F0000000031
:1075E0000080C0C0404040C080C04000000000009B
:1075F000000F1F1F101090FFFFFF80000000000011
:10760000000040C0C0C080C0C0C0C08000000000FA
:107610000000203F3F3F2100000101010000000069
:10762000000080C0C040404040C08000000000001A
:107630000000193B232626263C3D190000000000CF
:1076400000004040E0F0F8404040400000000000F2
:10765000000000001F3F3F203838180000000000E5
:107660000000C0C0C0000000C0C0C000000000009A
:1076700000001F3F3F2020203F1F3F200000000050
:107680000000C0C0C0000000C0C0C000000000007A
:107690000000070F1F3830381F0F070000000000E0
:1076A0000000C0C0C00000000000C0C0C00000005A
:1076B0000000070F3F38380E38383F0F0700000032
:1076C0000000C0C0C00000C0C0C00000000000003A
:1076D000000030393F0F0F3F39300000000000003C
:1076E000000000C0C0C0000000C0C0C0000000001A
:1076F000000080878F9FD8F8783F0F0700000000B8
:107700000000C0C0404040C0C0C0000000000000F9
:10771000000031383C2E27233138000000000000E3
:1077200000008080C0787C3C040404040000000059
:1077300000000101031E3E3C20202020000000002C
:10774000000000000000FEFEFE000000000000003F
:107750000000000000007F7F7F00000000000000AC
:107760000000040404043C7C78C080800000000019
:107770000000202020203C3E1E03010100000000EC
:1077800000383C3C040C1C3830203C3C1C00000001
:1077900000000000000000000000000000000008E1
:1077A00010205F000000000000000000000000004A
:1077B000000000000000F80000000000000033306E
:1077C00000000000100C06100C0600000000000075
:1077D00000000040C07840C0784000043F04043FEF
:1077E000040400007088FC08300000001820FF210D
:1077F0001E0000F008F000E018000000211C031E2D
:10780000211E0000F00888700000001E21232419AA
:1078100027211010160E00000000000000000000DC
:10782000000000000000E01804020000000007183B
:1078300020400000020418E000000000402018076B
:10784000000000404080F0804040000202010F0133
:10785000020200000000F0000000000101011F0111
:10786000010100000000000000000080B070000076
:107870000000000000000000000000000101010104
:107880000101010000000000000000003030000095
:10789000000000000000008060180400601806016D
:1078A00000000000E010080810E000000F10202089
:1078B000100F00001010F8000000000020203F20F2
:1078C000200000007008080888700000302824227A
:1078D000213000003008888848300000182020201F
:1078E000110E000000C02010F8000000070424243E
:1078F0003F240000F808888808080000192120208B
:10790000110E0000E0108888180000000F112020E0
:10791000110E0000380808C83808000000003F00B9
:107920000000000070880808887000001C222121D7
:10793000221C0000E010080810E0000000312222A4
:10794000110F00000000C0C0000000000000303037
:1079500000000000000080000000000000806000C7
:107960000000000000804020100800000102040810
:107970001020004040404040404000040404040403
:1079800004040000081020408000000020100804BB
:10799000020100007048080808F0000000003036BE
:1079A000010000C030C828E810E000071827242391
:1079B000140B000000C038E0000000203C2302024D
:1079C00027382008F8888888700000203F20202071
:1079D000110E00C0300808080838000718202020C1
:1079E00010080008F808080810E000203F202020B8
:1079F000100F0008F88888E8081000203F20202396
:107A000020180008F88888E8081000203F200003AC
:107A1000000000C0300808083800000718202022A5
:107A20001E020008F808000008F808203F210101A4
:107A3000213F20000808F8080800000020203F200F
:107A400020000000000808F8080800C08080807F3F
:107A500000000008F888C028180800203F200126F0
:107A600038200008F8080000000000203F202020F7
:107A700020300008F8F800F8F80800203F003F0028
:107A80003F200008F830C00008F808203F20000719
:107A9000183F00E01008080810E0000F1020202018
:107AA000100F0008F808080808F000203F21010125
:107AB000010000E01008080810E0000F1824243826
:107AC000504F0008F8888888887000203F20000305
:107AD0000C30200070880808083800003820212168
:107AE000221C00180808F8080818000000203F2091
:107AF00000000008F808000008F808001F202020F7
:107B0000201F000878880000C83808000007380ED9
:107B1000010000F80800F80008F800033C0700071F
:107B20003C0300081868808068180820302C030384
:107B30002C30200838C800C83808000000203F203A
:107B400000000010080808C8380800203826212046
:107B5000201800000000FE020202000000007F402A
:107B6000404000000C30C000000000000000010692
:107B700038C00000020202FE000000004040407FCA
:107B800000000000000402020204000000000000E7
:107B90000000000000000000000000808080808065
:107BA000808080000202040000000000000000004D
:107BB0000000000000808080800000001924222244
:107BC000223F2008F8008080000000003F112020A4
:107BD000110E000000008080800000000E112020A7
:107BE000201100000000808088F800000E11202085
:107BF000103F200000808080800000001F22222291
:107C0000221300008080F0888888180020203F2000
:107C10002000000000808080808000006B9494949D
:107C200093600008F8008080800000203F21000061
:107C3000203F2000809898000000000020203F2076
:107C4000200000000000809898000000C080808024
:107C50007F000008F8000080808000203F24022D73
:107C6000302000000808F8000000000020203F201D
:107C70002000008080808080808000203F20003FA6
:107C800020003F8080008080800000203F21000095
:107C9000203F200000808080800000001F202020E6
:107CA000201F00808000808000000080FFA1202035
:107CB000110E000000008080808000000E11202046
:107CC000A0FF80808080008080800020203F2120D5
:107CD0000001000000808080808000003324242484
:107CE000241900008080E0808000000000001F2038
:107CF0002000008080000000808000001F202020E5
:107D0000103F20808080000080808000010E3008BD
:107D100006010080800080008080800F300C030C02
:107D2000300F0000808000808080000020312E0E07
:107D3000312000808080000080808080818E7018DB
:107D400006010000808080808080000021302C228D
:107D500021300000000000807C02020000000000D2
:107D60003F404000000000FF00000000000000FF56
:107D70000000000002027C800000000040403F0044
:107D800000000000060101020204040000000000DF
:107D90000000000608205F00000000000000000056
:107DA0002F000000000700070000147F147F14005C
:107DB000242A7F2A120023130864620036495522C0
:107DC0005000000503000000001C2241000000419B
:107DD000221C000014083E08140008083E08080091
:107DE0000000A060000008080808080000606000AB
:107DF00000002010080402003E5149453E000042A8
:107E00007F4000004261514946002141454B31000D
:107E10001814127F10002745454539003C4A49494E
:107E20003000017109050300364949493600064909
:107E300049291E00003636000000005636000000BA
:107E400008142241000014141414140000412214D8
:107E50000800020151090600324959513E007C12C6
:107E600011127C007F49494936003E4141412200C0
:107E70007F4141221C007F49494941007F0909098E
:107E800001003E4149497A007F0808087F0000410F
:107E90007F4100002040413F01007F081422410043
:107EA0007F40404040007F020C027F007F040810AA
:107EB0007F003E4141413E007F09090906003E41E5
:107EC00051215E007F091929460046494949310080
:107ED00001017F0101003F4040403F001F20402042
:107EE0001F003F4038403F00631408146300070838
:107EF00070080700615149454300007F414100007F
:107F0000552A552A55000041417F00000402010214
:107F100004004040404040000001020400002054A2
:107F2000545478007F484444380038444444200086
:107F3000384444487F00385454541800087E0901DE
:107F4000020018A4A4A47C007F0804047800004464
:107F50007D4000004080847D00007F1028440000A8
:107F600000417F4000007C04180478007C08040471
:107F70007800384444443800FC2424241800182491
:107F80002418FC007C0804040800485454542000C1
:107F9000043F444020003C4040207C001C20402006
:107FA0001C003C4030403C004428102844001CA0E9
:107FB000A0A07C004464544C4400000877000000FA
:107FC00000007F0000000077080000001008100883
:107FD00000141414141414004C4544203D204F4E3A
:107FE000200056616C6F7220414443004C45442090
:0B7FF0003D204F464600257520000094
:047FFC0061EF2CF015
:020000040030CA
:0E0000002108191EFF8181FF0FC00FE00F4085
:00000001FF
