:04000000FEEF3FF0E0
:106A720069EC35F01200959C8C9C1200036E035059
:106A8200C4EC35F01200566A556A546A000EF86E6C
:106A92000001C9EF3BF05EEC35F0780EC4EC35F046
:106AA200400EC4EC35F0120004C001F005C002F043
:106AB200B4EC35F097EC35F01200F4EC35F0C5800B
:106AC200C5B066EF35F068EF35F061EF35F01200D2
:106AD200F4EC35F0C584C5B471EF35F073EF35F0E1
:106AE2006CEF35F012009280928292849286010EAF
:106AF200C26E0B0EC16EAA0EC06E120093809382FC
:106B0200800EC76E280EC66EC56A770EC86E9E9638
:106B1200120094948B944F0ECB6EBE6A0C0EBD6E17
:106B2200040ECA6E000EB4EC3AF01200036E03506B
:106B3200D8B49EEF35F0A0EF35F0A3EF35F08C8C92
:106B4200A4EF35F08C9C1200036E5EEC35F0780EEB
:106B5200C4EC35F0000EC4EC35F00350C4EC35F053
:106B620069EC35F01200210E015C030E0258D8A028
:106B7200BDEF35F0BFEF35F0C2EF35F0010EC3EFD8
:106B820035F0000E1200026EF4EC35F09E9602C053
:106B9200C9FF9EA6CFEF35F0D1EF35F0CAEF35F041
:106BA2009E96C5501200F50E015C010E0258D8A047
:106BB200DDEF35F0DFEF35F0E2EF35F0010EE3EF18
:106BC20035F0000E12007D0E015C010E0258D8B0A5
:106BD200EDEF35F0EFEF35F0F2EF35F08C8AF3EFB1
:106BE20035F08C9A1200C5CF01F01F0E0116D8A401
:106BF200FDEF35F0FFEF35F0F4EF35F0C7B404EFF9
:106C020036F006EF36F0F4EF35F01200F50E015CC7
:106C1200010E0258D8A010EF36F012EF36F018EF3E
:106C220036F0940E016E7F0E026E1CEF36F08B0E64
:106C3200016E7F0E026E1200040E025CD8A024EFD9
:106C420036F026EF36F029EF36F0030E026E0168B9
:106C52000150FF08036E0250D8A0E82A0308046E10
:106C620003C001F004C002F0120003C001F004C02E
:106C720002F03AEC37F0076E05C001F006C002F0F0
:106C8200D4EC35F00009D8B449EF36F04BEF36F0CA
:106C920055EF36F00750D8A451EF36F053EF36F0E7
:106CA20055EF36F0010E076E07501200056E0D0EFD
:106CB20005645EEF36F060EF36F061EF36F0056A9C
:106CC200C30EC2160544E846FC0BC212140EE82E8F
:106CD200FED7C282C2B270EF36F072EF36F06BEFBF
:106CE20036F0C450036EC350016E03C002F01200AE
:106CF200720ED36E070EB46EB56A95909592959406
:106D0200959695988C908C928C948C968C98959A5A
:106D12008C9A3CEC35F074EC35F0A00E016E860EC8
:106D2200026E010E036E000E046E7FEC35F066EC0F
:106D32003BF08AEC35F01200056E7F0E0564A4EF7D
:106D420036F0A6EF36F0A7EF36F0056A070E0464B8
:106D5200ADEF36F0AFEF36F0B0EF36F0046A05C0B3
:106D620056F004C055F00450B00FA5EC35F00550B4
:106D72000F0BA5EC35F005380F0B0F0B100FA5EC20
:106D820035F01200076A07C004F0000E9DEC36F0E1
:106D92004CEC35F0066A000E3FEC35F0062A7F0E09
:106DA2000664D6EF36F0D8EF36F0CCEF36F039EC99
:106DB20035F0072A070E0764E1EF36F0E3EF36F00D
:106DC200C4EF36F0000E046E000E9DEC36F0120099
:106DD200076E070E0764F0EF36F0F2EF36F0F4EFCD
:106DE20036F00FEF37F007C004F0000E9DEC36F0DE
:106DF2004CEC35F0066A000E3FEC35F0062A7F0EA9
:106E0200066406EF37F008EF37F0FCEF36F039ECA6
:106E120035F007C004F0000E9DEC36F0120022C0DF
:106E220001F023C002F0CCEC38F02A6E2A5066EC56
:106E320037F02B6E2B50F4EC37F024C001F025C054
:106E420002F0E4EC35F026C004F027C005F055EC62
:106E520035F026C003F027C004F028C005F029C091
:106E620006F036EC36F02C6E2C5061EC3AF02C50D9
:106E72001200210E015C030E0258D8A043EF37F036
:106E820045EF37F048EF37F0030E65EF37F0590E54
:106E9200015C020E0258D8A051EF37F053EF37F0E1
:106EA20056EF37F0020E65EF37F0910E015C010EDE
:106EB2000258D8A05FEF37F061EF37F064EF37F098
:106EC200010E65EF37F0000E1200016E7BEF37F016
:106ED200010E92EF37F0020E92EF37F0030E92EFAF
:106EE20037F0040E92EF37F0050E92EF37F0000EF6
:106EF20092EF37F00150000AD8B469EF37F0010A77
:106F0200D8B46CEF37F0030AD8B46FEF37F0010A48
:106F1200D8B472EF37F0070AD8B475EF37F078EFCC
:106F220037F01200A9EF37F00FC0F6FF10C0F7FFDD
:106F3200F86A070EF76403D00800F55005D0F6CFC3
:106F4200E1FFF7CFE2FFE750C6EC3CF00F4A102A10
:106F52000FC0F6FF10C0F7FFF86A070EF76403D000
:106F62000800F55005D0F6CFE1FFF7CFE2FFE7507A
:106F72000009D8A4BFEF37F0C1EF37F095EF37F033
:106F8200120003500410D8B4C9EF37F0CBEF37F03A
:106F9200EFEF37F0010E056ED3EF37F0D8900336DE
:106FA2000436052A04AED8EF37F0DAEF37F0CFEF28
:106FB20037F00350015C04500258D8A0E3EF37F0D9
:106FC200E5EF37F0E9EF37F00350015E0450025A63
:106FD200D89004320332052EDAEF37F001C001F007
:106FE20002C002F01200016E8C908C928C948C96EE
:106FF2008C980150D8B400EF38F002EF38F003EF6C
:1070020038F08C80010E016409EF38F00BEF38F094
:107012000CEF38F08C82020E016412EF38F014EF9C
:1070220038F015EF38F08C84030E01641BEF38F052
:107032001DEF38F01EEF38F08C86040E016424EF49
:1070420038F026EF38F027EF38F08C881200000E67
:10705200096E000E0A6E000E0B6E000E0C6E01A081
:1070620035EF38F037EF38F03FEF38F005500926AA
:1070720006500A2207500B2208500C22D8900536DF
:10708200063607360836D89004320332023201320D
:107092000150021003100410D8A452EF38F054EF3C
:1070A20038F030EF38F009C001F00AC002F00BC02E
:1070B20003F00CC004F01200000E57EC36F001C0D1
:1070C20020F002C021F020C001F021C002F0036ACA
:1070D200046A880E056E130E066E000E076E000E11
:1070E200086E28EC38F001C00DF002C00EF003C0AB
:1070F2000FF004C010F0FF0E116E030E126E000EA0
:10710200136E000E146E0FEC3AF00DC01CF00EC0A0
:107112001DF00FC01EF010C01FF01CC01AF01DC0E1
:107122001BF01200066A000E056E03500410D8B45C
:107132009DEF38F09FEF38F0C7EF38F0010E076E81
:10714200A7EF38F0D89003360436072A04AEACEF26
:1071520038F0AEEF38F0A3EF38F0D89005360636A7
:107162000350015C04500258D8A0BAEF38F0BCEFCB
:1071720038F0C1EF38F00350015E0450025A058026
:10718200D89004320332072EAEEF38F005C001F07A
:1071920006C002F01200025007E1C90E015CD8B02D
:1071A200D5EF38F0D7EF38F0DAEF38F0000E05EF10
:1071B20039F0910E015C010E0258D8B0E3EF38F0BD
:1071C200E5EF38F0E8EF38F0010E05EF39F0BD0ECB
:1071D200015C020E0258D8B0F1EF38F0F3EF38F04C
:1071E200F6EF38F0020E05EF39F0850E015C030E62
:1071F2000258D8B0FFEF38F001EF39F004EF39F060
:10720200030E05EF39F0040E1200025007E1FB0EE7
:10721200015CD8B00FEF39F011EF39F014EF39F00B
:10722200000E3FEF39F0910E015C010E0258D8B00A
:107232001DEF39F01FEF39F022EF39F0010E3FEF69
:1072420039F0590E015C020E0258D8B02BEF39F01A
:107252002DEF39F030EF39F0020E3FEF39F0210E09
:10726200015C030E0258D8B039EF39F03BEF39F028
:107272003EEF39F0030E3FEF39F0040E1200036EB9
:1072820067EF39F0570E016E7F0E026E7EEF39F016
:107292009D0E016E7F0E026E7EEF39F06D0E016E55
:1072A2007F0E026E7EEF39F0810E016E7F0E026E4E
:1072B2007EEF39F03F0E016E7F0E026E7EEF39F0E7
:1072C200770E016E7F0E026E7EEF39F00350000AD8
:1072D200D8B443EF39F0010AD8B449EF39F0030AC0
:1072E200D8B44FEF39F0010AD8B455EF39F0070A94
:1072F200D8B45BEF39F061EF39F01200036EA6EFFC
:1073020039F04B0E016E7F0E026EBDEF39F0160E94
:10731200016E7F0E026EBDEF39F0320E016E7F0EEE
:10732200026EBDEF39F0250E016E7F0E026EBDEFCB
:1073320039F0070E016E7F0E026EBDEF39F0620E5C
:10734200016E7F0E026EBDEF39F00350000AD8B411
:1073520082EF39F0010AD8B488EF39F0030AD8B4C1
:107362008EEF39F0010AD8B494EF39F0070AD8B495
:107372009AEF39F0A0EF39F01200206A13C001F041
:1073820014C002F0046A0A0E036E93EC38F001C0D6
:107392001CF002C01DF013C001F014C002F0046A18
:1073A2000A0E036EC2EC37F001C01EF002C01FF0DD
:1073B2001CC008F01DC009F0160E0A6E0BEC3BF063
:1073C200EEEF39F02050160FD96EDA6A15502024EC
:1073D200E16EE26ADFCFE7FF202A2050160FD96E56
:1073E200DA6ADF50D8A4F8EF39F0FAEF39F0E3EFB8
:1073F20039F015502024D96EDA6A2E0EDF6E202A5B
:1074020015502024D96EDA6A1E50300FDF6E202A02
:1074120015502024D96EDA6ADF6A1200000E156E4A
:10742200000E166E000E176E000E186E115012101E
:1074320013101410D8B420EF3AF022EF3AF058EFBC
:107442003AF0010E196E2CEF3AF0D890113612363E
:1074520013361436192A14AE31EF3AF033EF3AF0FC
:1074620026EF3AF0D89015361636173618361150E0
:107472000D5C12500E5813500F5814501058D8A0CB
:1074820045EF3AF047EF3AF050EF3AF011500D5E07
:1074920012500E5A13500F5A1450105A1580D89089
:1074A2001432133212321132192E33EF3AF015C060
:1074B2000DF016C00EF017C00FF018C010F0120039
:1074C200216E54502118D8A469EF3AF06BEF3AF0CC
:1074D2009EEF3AF0B3EF3AF0000EB4EC3AF0B1EFAF
:1074E2003AF05450D8A478EF3AF07AEF3AF089EFB4
:1074F2003AF0640EB4EC3AF0050E206E0F0E1F6ED9
:10750200F10EE82EFED71F2EFCD7202EFAD7000050
:10751200280EB4EC3AF0B1EF3AF0460EB4EC3AF081
:10752200B1EF3AF0640EB4EC3AF0B1EF3AF0000E7B
:10753200B4EC3AF0216AB1EF3AF02150000AD8B423
:107542006DEF3AF0010AD8B472EF3AF0030AD8B4F8
:107552008EEF3AF0010AD8B493EF3AF098EF3AF08E
:1075620021C054F012001C6E640E1C64BBEF3AF092
:10757200BDEF3AF0BFEF3AF0640E1C6E1C50016E84
:10758200026A036A046A400E056E010E066E000E60
:10759200076E000E086E28EC38F001C00DF002C034
:1075A2000EF003C00FF004C010F0640E116E000E56
:1075B200126E000E136E000E146E0FEC3AF00DC038
:1075C2001DF00EC01EF0400E1D5C010E1E58D8A00C
:1075D200EDEF3AF0EFEF3AF0F3EF3AF0010E1E6EF4
:1075E2003F0E1D6E1DC01AF01EC01BF0D8901B323C
:1075F2001A32D8901B321A321A50BE6E1DC01AF0BF
:10760200030E1A161A3AF00E1A16BD50CF0B1A10A4
:10761200BD6E1200126A116A08500910D8A414EF44
:107622003BF016EF3BF041EF3BF00A50D96EDA6ABD
:10763200300EDF6E0A50D96EDA6A010ED926DF6A81
:1076420065EF3BF012500B0FD96EDA6A08C001F0F9
:1076520009C002F0046A0A0E036EC2EC37F0015050
:10766200300FDF6E08C001F009C002F0046A0A0E92
:10767200036E93EC38F001C008F002C009F0122A40
:1076820008500910D8A448EF3BF04AEF3BF023EF33
:107692003BF058EF3BF0120612500B0FD96EDA6A2C
:1076A2000A501124E16EE26ADFCFE7FF112A12507D
:1076B200D8A45EEF3BF060EF3BF04CEF3BF00A509A
:1076C2001124D96EDA6ADF6A1200020E096E040E04
:1076D200086EBA0EE82EFED7082EFCD7092EFAD76E
:1076E20000D0AE0EA5EC35F0200EA5EC35F0020E62
:1076F200A5EC35F0B00EA5EC35F0C80EA5EC35F0D2
:10770200000EA5EC35F0100EA5EC35F0400EA5EC00
:1077120035F0810EA5EC35F07F0EA5EC35F0A10E0B
:10772200A5EC35F0A60EA5EC35F0A80EA5EC35F0CB
:107732003F0EA5EC35F0A40EA5EC35F0D30EA5EC6A
:1077420035F0000EA5EC35F0D50EA5EC35F0800E27
:10775200A5EC35F0D90EA5EC35F0F10EA5EC35F01F
:10776200DA0EA5EC35F0120EA5EC35F0DB0EA5EC29
:1077720035F0400EA5EC35F08D0EA5EC35F0140E6B
:10778200A5EC35F0AF0EA5EC35F0C3EC36F01200E7
:1077920079EC36F041EC3CF0C3EC36F0000E046EAE
:1077A200080E9DEC36F0E50E0F6E7E0E106E93EC19
:1077B20037F0010E046E080E9DEC36F0F70E0F6ED8
:1077C2007E0E106E93EC37F05DEC38F01AC04CF080
:1077D2001BC04DF0010E57EC36F001C04EF002C056
:1077E2004FF0020E57EC36F001C049F002C04AF0E9
:1077F20049C001F04AC002F01DEC36F001C050F061
:1078020002C051F0030E57EC36F001C052F002C034
:1078120053F050C022F051C023F04CC024F04DC0B0
:1078220025F04EC026F04FC027F052C028F053C0BA
:1078320029F010EC37F04B6E4CC021F04DC022F015
:107842004EC023F04FC024F050C025F051C026F0A6
:1078520052C027F053C028F04BC029F04DEC3DF048
:10786200070E486E170E476E6A0EE82EFED7472E99
:10787200FCD7482EFAD700D0E5EF3BF0FEEF3FF001
:107882008C80020E236E040E226EBA0EE82EFED7F4
:10789200222EFCD7232EFAD700D08C82020E236E22
:1078A200040E226EBA0EE82EFED7222EFCD7232E0D
:1078B200FAD700D08C84020E236E040E226EBA0E0A
:1078C200E82EFED7222EFCD7232EFAD700D08C86A4
:1078D200020E236E040E226EBA0EE82EFED7222E60
:1078E200FCD7232EFAD700D08C88020E236E040E0A
:1078F200226EBA0EE82EFED7222EFCD7232EFAD7FE
:1079020000D08C8A030E236E080E226E770EE82EAC
:10791200FED7222EFCD7232EFAD70000010E97ECB9
:1079220035F0030E236E080E226E770EE82EFED778
:10793200222EFCD7232EFAD70000000E97EC35F04A
:10794200030E61EC3AF0080E236E1B0E226E270E18
:10795200E82EFED7222EFCD7232EFAD70000000EE7
:1079620061EC3AF08C908C928C948C968C988C9AD8
:10797200030E236E080E226E770EE82EFED7222EFD
:10798200FCD7232EFAD7000012000C6E0A0E0C1838
:10799200D8A4CEEF3CF0D0EF3CF0E4EF3CF0566AD6
:1079A200070E5560D7EF3CF0D9EF3CF0DCEF3CF02E
:1079B200552ADDEF3CF0556A55C004F056509DEC57
:1079C20036F04CEF3DF00CC00EF01F0E0E64ECEFE3
:1079D2003CF0EEEF3CF0F6EF3CF07F0E0E64F4EF7D
:1079E2003CF0F6EF3CF0F8EF3CF03F0E0E6E7A0EF4
:1079F2005664FEEF3CF000EF3DF012EF3DF0566AA8
:107A0200070E556007EF3DF009EF3DF00CEF3DF03A
:107A1200552A0DEF3DF0556A55C004F056509DECC5
:107A220036F0E00E0E24066E076AFF0E0722050EE0
:107A32000602F3CF08F0F4CF09F00702F35009264B
:107A420008C00AF009C00BF04CEC35F00D6A050EC7
:107A5200066E7D0E076E0D500626000E07220A5096
:107A620006260B50072206C0F6FF07C0F7FF0800E4
:107A7200F5503FEC35F00D2A040E0D6443EF3DF056
:107A820045EF3DF028EF3DF0000E3FEC35F039ECCC
:107A920035F0060E5626120021C013F022C014F053
:107AA2002A0E156EBEEC39F023C008F024C009F08E
:107AB200320E0A6E0BEC3BF025C008F026C009F02E
:107AC200380E0A6E0BEC3BF027C008F028C009F014
:107AD2003E0E0A6E0BEC3BF023C001F024C002F014
:107AE20006EC39F0446E25C001F026C002F0CCEC61
:107AF20038F0466E465066EC37F0456E020EE9EC01
:107B020036F0020E046E080E9DEC36F0F80E0F6E83
:107B12007F0E106E93EC37F02A0E0F6E106A93EC04
:107B220037F0E30E0F6E7F0E106E93EC37F03E0EC1
:107B32000F6E106A93EC37F0030EE9EC36F0030E89
:107B4200046E080E9DEC36F0F10E0F6E7F0E106E75
:107B520093EC37F0320E0F6E106A93EC37F0EF0EA3
:107B62000F6E7F0E106E93EC37F044507FEC39F0BD
:107B720001C00FF002C010F093EC37F0040EE9ECF4
:107B820036F0040E046E080E9DEC36F0E80E0F6E11
:107B92007F0E106E93EC37F0380E0F6E106A93EC76
:107BA20037F0050EE9EC36F0050E046E080E9DEC7A
:107BB20036F0465040EC39F001C00FF002C010F030
:107BC20093EC37F0EF0E0F6E7F0E106E93EC37F0E2
:107BD20027C001F028C002F007EC36F001C00FF018
:107BE20002C010F093EC37F0060EE9EC36F0060E08
:107BF200046E080E9DEC36F0F50E0F6E7F0E106EC1
:107C020093EC37F04550300FC6EC3CF0ED0E0F6EA2
:107C12007F0E106E93EC37F07D0E215C010E225820
:107C2200D8B016EF3EF018EF3EF020EF3EF0BF0E58
:107C32000F6E7F0E106E93EC37F026EF3EF0A60E1D
:107C42000F6E7F0E106E93EC37F0070EE9EC36F0F4
:107C5200070E046E080E9DEC36F023C001F024C01E
:107C620002F0B4EC35F00009D8B43AEF3EF03CEF44
:107C72003EF044EF3EF0C70E0F6E7F0E106E93EC97
:107C820037F04AEF3EF0AF0E0F6E7F0E106E93ECA0
:107C920037F02950D8A450EF3EF052EF3EF05AEFA1
:107CA2003EF0B70E0F6E7F0E106E93EC37F081EF41
:107CB2003EF02904D8A460EF3EF062EF3EF06AEF96
:107CC2003EF0CE0E0F6E7F0E106E93EC37F081EF0A
:107CD2003EF0020E2918D8A471EF3EF073EF3EF089
:107CE2007BEF3EF0D50E0F6E7F0E106E93EC37F0E9
:107CF20081EF3EF0DC0E0F6E7F0E106E93EC37F0CC
:107D0200120000000000000000005F0000000700F9
:107D12000700147F147F14242A7F2A122313086475
:107D22006236495522500005030000001C22410022
:107D32000041221C0014083E081408083E080800EE
:107D42005030000008080808080060600000201099
:107D52000804023E5149453E00427F4000426151C3
:107D620049462141454B311814127F10274545459C
:107D7200393C4A49493001710905033649494936B6
:107D8200064949291E003636000000563600000812
:107D92001422410014141414140041221408020184
:107DA200510906324979413E7E1111117E7F4949BE
:107DB20049363E414141227F4141221C7F49494986
:107DC200417F090909013E4149497A7F0808087F34
:107DD20000417F41002040413F017F081422417F42
:107DE200404040407F020C027F7F0408107F3E41EA
:107DF20041413E7F090909063E4151215E7F091931
:107E02002946464949493101017F01013F4040402D
:107E12003F1F2040201F7F2018207F631408146317
:107E220007087008076151494543007F414100023C
:107E3200040810200041417F000402010204404076
:107E4200404040000102040020545454787F4844CA
:107E520044383844444420384444487F38545454C5
:107E620018087E0901020C5252523E7F080404781F
:107E720000447D40002040443D007F102844000023
:107E8200417F40007C041804787C0804047838445C
:107E92004444387C14141408081414187C7C080414
:107EA20004084854545420043F4440203C4040209D
:107EB2007C1C2040201C3C4030403C44281028447C
:107EC2000C5050503C4464544C440008364100006D
:107ED200007F0000004136080008082A1C08000044
:107EE20000000053495354454D4120414D424945FC
:107EF2004E54414C004C4D3335204D51204C555A77
:107F02002048554D0041495245204D555920434F77
:107F12004E542E004149524520414345505441425E
:107F22004C45004149524520434F4E54414D2E008D
:107F32004149524520524547554C4152004C555AF1
:107F420020494E54454E53410041495245204C4927
:107F52004D50494F004D5559204F534355524F00F4
:107F620041495245204552524F52004C555A204DDC
:107F720045444941004C555A204552524F52004DFA
:107F820055434841204C555A0048554D2042414ADC
:107F9200410048554D20414C544100504F4341202F
:107FA2004C555A00544C45443A4F464600425A3AC0
:107FB2004F4646200046414E3A4F464600544C45F5
:107FC200443A4F4E00425A3A4F4E200046414E3AF2
:107FD20056310046414E3A56320046414E3A5633E9
:107FE200004320483A004C555A3A002F3520004DA4
:0E7FF200513A004C3A00543A000044EF35F08A
:020000040030CA
:0E0000000008181EFF8181FF0FC00FE00F40A7
:00000001FF
