:04000000FEEF3FF0E0
:100800000061514945433F4040403F7F0919294617
:100810007F404040407F4141221C3E414141227E79
:100820001111117E064949291E364949493601717F
:100830000905033C4A4949302745454539181412F2
:100840007F102141454B31426151494600427F4072
:10085000003E5149453E00363600006264081323CD
:1008600000000000004144433A004C555A3A004C05
:10087000445200250000056E8EEF04F0600E076EF6
:10088000E1EF04F05B0E076EE1EF04F0560E076E29
:10089000E1EF04F0510E076EE1EF04F04C0E076E2D
:1008A000E1EF04F0470E076EE1EF04F0420E076E31
:1008B000E1EF04F03D0E076EE1EF04F0380E076E35
:1008C000E1EF04F0330E076EE1EF04F02E0E076E39
:1008D000E1EF04F0290E076EE1EF04F0240E076E3D
:1008E000E1EF04F01F0E076EE1EF04F01A0E076E41
:1008F000E1EF04F0150E076EE1EF04F0100E076E45
:10090000E1EF04F00B0E076EE1EF04F0060E076E48
:10091000E1EF04F0010E076EE1EF04F00550200A4C
:10092000D8B43EEF04F0050AD8B442EF04F0150A3B
:10093000D8B44AEF04F0010AD8B44EEF04F0030A29
:10094000D8B452EF04F0010AD8B456EF04F0070A05
:10095000D8B45AEF04F0010AD8B45EEF04F0030AE9
:10096000D8B462EF04F0010AD8B466EF04F00F0ABD
:10097000D8B46AEF04F0010AD8B46EEF04F0030AA9
:10098000D8B446EF04F07B0AD8B472EF04F0020A40
:10099000D8B476EF04F0070AD8B47AEF04F0080A66
:1009A000D8B47EEF04F01E0AD8B482EF04F0070A30
:1009B000D8B486EF04F00F0AD8B48AEF04F03EEF03
:1009C00004F0066A07500624046E04C0F6FF080E01
:1009D000F76E0800F550CEEC07F0062A040E066408
:1009E000F4EF04F0F6EF04F0E2EF04F0000ECEECCA
:1009F00007F01200126A116A08500910D8A403EF18
:100A000005F005EF05F030EF05F00A50D96EDA6A0F
:100A1000300EDF6E0A50D96EDA6A010ED926DF6A0F
:100A200054EF05F012500B0FD96EDA6A08C001F0CE
:100A300009C002F0046A0A0E036E02EC07F00150CE
:100A4000300FDF6E122A08C001F009C002F0046AFC
:100A50000A0E036E94EC06F001C008F002C009F023
:100A600008500910D8A437EF05F039EF05F012EF60
:100A700005F047EF05F0120612500B0FD96EDA6A37
:100A80000A501124E16EE26ADFCFE7FF112A12500B
:100A9000D8A44DEF05F04FEF05F03BEF05F00A50FD
:100AA0001124D96EDA6ADF6A1200020E096E040E92
:100AB000086EBA0EE82EFED7082EFCD7092EFAD7FC
:100AC00000D0AE0EBFEC07F0D50EBFEC07F0800EE5
:100AD000BFEC07F0A80EBFEC07F03F0EBFEC07F02D
:100AE000D30EBFEC07F0000EBFEC07F0400EBFECDA
:100AF00007F08D0EBFEC07F0140EBFEC07F0200ED0
:100B0000BFEC07F0020EBFEC07F0A10EBFEC07F040
:100B1000C80EBFEC07F0DA0EBFEC07F0120EBFEC08
:100B200007F0810EBFEC07F07F0EBFEC07F0D90E87
:100B3000BFEC07F0F10EBFEC07F0DB0EBFEC07F0E7
:100B4000400EBFEC07F0A40EBFEC07F0A60EBFEC02
:100B500007F0AF0EBFEC07F063EC07F01200000ED9
:100B6000156E000E166E000E176E000E186E1150E8
:100B7000121013101410D8B4C0EF05F0C2EF05F036
:100B8000F8EF05F0010E196ECCEF05F0D890113694
:100B9000123613361436192A14AED1EF05F0D3EFFE
:100BA00005F0C6EF05F0D89015361636173618360C
:100BB00011500D5C12500E5813500F58145010580D
:100BC000D8A0E5EF05F0E7EF05F0F0EF05F01150E4
:100BD0000D5E12500E5A13500F5A1450105A1580B1
:100BE000D8901432133212321132192ED3EF05F08D
:100BF00015C00DF016C00EF017C00FF018C010F0A1
:100C0000120063EC07F0000E046E000EAFEC07F06C
:100C10006F0E086E0850D8A4080E096E34EC07F069
:100C2000000E046E020EAFEC07F0650E086E085061
:100C3000D8A4080E096E34EC07F013C008F014C0F5
:100C400009F0160E0A6EFAEC04F0160E086E096A28
:100C500034EC07F0000E046E040EAFEC07F06A0EE1
:100C6000086E0850D8A4080E096E34EC07F015C0C1
:100C700008F0096A160E0A6EFAEC04F0160E086EF9
:100C8000096A34EC07F0730E086E0850D8A4080EF9
:100C9000096E34EC07F012000CEC08F001EC08F0DF
:100CA00055EC05F0000E80EC07F001C01FF002C00B
:100CB00020F01FC001F020C002F0036A046A640E35
:100CC000056E000E066E000E076E000E086ECDEC6F
:100CD00006F001C00DF002C00EF003C00FF004C01A
:100CE00010F0FF0E116E030E126E000E136E000E4A
:100CF000146EAFEC05F00D501E6E1FC013F020C037
:100D000014F01EC015F001EC06F0040E1D6E0C0E62
:100D10001C6E340EE82EFED71C2EFCD71D2EFAD7E3
:100D200052EF06F0FEEF3FF0066A000E056E03502C
:100D30000410D8B49EEF06F0A0EF06F0C8EF06F05E
:100D4000010E076EA8EF06F0D89003360436072A86
:100D500004AEADEF06F0AFEF06F0A4EF06F0D890CA
:100D6000053606360350015C04500258D8A0BBEF8C
:100D700006F0BDEF06F0C2EF06F00350015E04502E
:100D8000025A0580D89004320332072EAFEF06F0E6
:100D900005C001F006C002F01200000E096E000E40
:100DA0000A6E000E0B6E000E0C6E01A0DAEF06F05C
:100DB000DCEF06F0E4EF06F00550092606500A22A3
:100DC00007500B2208500C22D890053606360736FD
:100DD0000836D89004320332023201320150021038
:100DE00003100410D8A4F7EF06F0F9EF06F0D5EFE2
:100DF00006F009C001F00AC002F00BC003F00CC0FD
:100E000004F0120003500410D8B409EF07F00BEF00
:100E100007F02FEF07F0010E056E13EF07F0D890E3
:100E200003360436052A04AE18EF07F01AEF07F070
:100E30000FEF07F00350015C04500258D8A023EFD5
:100E400007F025EF07F029EF07F00350015E04508B
:100E5000025AD89004320332052E1AEF07F001C06F
:100E600001F002C002F012004AEF07F008C0F6FFDE
:100E700009C0F7FFF86A070EF76403D00800F550C1
:100E800005D0F6CFE9FFF7CFEAFFEF503BEC04F0D7
:100E9000084A092A08C0F6FF09C0F7FFF86A070EDA
:100EA000F76403D00800F55005D0F6CFE9FFF7CF7F
:100EB000EAFFEF500009D8A460EF07F062EF07F0F7
:100EC00036EF07F01200076A000E046E0750AFEC11
:100ED00007F0066A000ECEEC07F0062A7F0E0664C5
:100EE00074EF07F076EF07F06AEF07F0072A070EB6
:100EF00007647DEF07F07FEF07F064EF07F0120063
:100F0000056E0F0E0516C30EC2160544E846FC0B0F
:100F1000C2120D0EE82EFED70000C282C2B293EFBD
:100F200007F095EF07F08EEF07F0C450036EC35043
:100F3000016E03C002F01200C5CF01F01F0E0116B2
:100F4000D8A4A5EF07F0A7EF07F09CEF07F0C7B410
:100F5000ACEF07F0AEEF07F09CEF07F01200056E64
:100F60000550B00FBFEC07F004500F0BBFEC07F0BB
:100F700004380F0B0F0B100FBFEC07F01200036EBD
:100F8000F6EC07F0780EDDEC07F0000EDDEC07F074
:100F90000350DDEC07F0EBEC07F01200036EF6EC0B
:100FA00007F0780EDDEC07F0400EDDEC07F00350A3
:100FB000DDEC07F0EBEC07F01200026E9CEC07F0A2
:100FC00002C0C9FF9EA6E7EF07F0E9EF07F0E2EFE6
:100FD00007F09E9612009CEC07F0C584C5B4F3EFB1
:100FE00007F0F5EF07F0EEEF07F012009CEC07F0CA
:100FF000C580C5B0FEEF07F000EF08F0F9EF07F08D
:101000001200180E9412800EC76E280EC66EC56AA6
:10101000130EC86E9E9612000E0EC16EA90EC06E03
:10102000010EC26E92801200000EF86E00014CEFAD
:0210300006F0C8
:047FFC0014EF08F086
:020000040030CA
:0E000000000C181EFF8081FF0FC00FE00F40A4
:00000001FF
