:04000000FEEF3FF0E0
:1076980077EC3BF01200036E03509CEC3BF01200B9
:1076A800226A216A000EF86E00015CEF3DF09280BC
:1076B800010EC26E0E0EC16EAA0EC06E12006CECE8
:1076C8003BF0780E9CEC3BF0400E9CEC3BF012003B
:1076D800ACEC3BF0C580C5B074EF3BF076EF3BF007
:1076E8006FEF3BF01200ACEC3BF0C584C5B47FEF04
:1076F8003BF081EF3BF07AEF3BF0120093809382EE
:10770800800EC76E280EC66EC56A770EC86E9E9626
:107718001200036E6CEC3BF0780E9CEC3BF0000E14
:107728009CEC3BF003509CEC3BF077EC3BF01200F8
:10773800026EACEC3BF09E9602C0C9FF9EA6A7EF76
:107748003BF0A9EF3BF0A2EF3BF09E96C55012002C
:10775800C5CF01F01F0E0116D8A4B5EF3BF0B7EF67
:107768003BF0ACEF3BF0C7B4BCEF3BF0BEEF3BF0F7
:10777800ACEF3BF01200720ED36E070EB46EB56A12
:1077880095908C905BEC3BF0A00E016E860E026E1D
:10779800010E036E000E046E82EC3BF002EC3EF02C
:1077A8001200580E015C020E0258D8A0DEEF3BF022
:1077B800E0EF3BF0EEEF3BF0040E025CD8B0E7EFF1
:1077C8003BF0E9EF3BF0EEEF3BF08C80010E036EEF
:1077D800F0EF3BF08C90036A03501200056E0D0E1B
:1077E8000564F9EF3BF0FBEF3BF0FCEF3BF0056A7B
:1077F800C30EC2160544E846FC0BC212100EE82E52
:10780800FED700D0C282C2B20CEF3CF00EEF3CF0C3
:1078180007EF3CF0C450036EC350016E03C002F082
:107828001200056E7F0E05641CEF3CF01EEF3CF065
:107838001FEF3CF0056A070E046425EF3CF027EFC4
:107848003CF028EF3CF0046A05C022F004C021F0A7
:107858000450B00F8DEC3BF005500F0B8DEC3BF056
:1078680005380F0B0F0B100F8DEC3BF01200076A59
:1078780007C004F0000E15EC3CF063EC3BF0066A20
:10788800000E4FEC3BF0062A7F0E06644EEF3CF0EC
:1078980050EF3CF044EF3CF04CEC3BF0072A070E6D
:1078A800076459EF3CF05BEF3CF03CEF3CF0000E16
:1078B800046E000E15EC3CF01200076E070E07640C
:1078C80068EF3CF06AEF3CF06CEF3CF087EF3CF07F
:1078D80007C004F0000E15EC3CF063EC3BF0066AC0
:1078E800000E4FEC3BF0062A7F0E06647EEF3CF05C
:1078F80080EF3CF074EF3CF04CEC3BF007C004F038
:10790800000E15EC3CF012009EEF3CF00FC0F6FFA5
:1079180010C0F7FFF86A070EF76403D00800F550A7
:1079280005D0F6CFE9FFF7CFEAFFEF5065EC3EF060
:107938000F4A102A0FC0F6FF10C0F7FFF86A070EAB
:10794800F76403D00800F55005D0F6CFE9FFF7CF6C
:10795800EAFFEF500009D8A4B4EF3CF0B6EF3CF0D2
:107968008AEF3CF0120003500410D8B4BEEF3CF08C
:10797800C0EF3CF0E4EF3CF0010E056EC8EF3CF0C0
:10798800D89003360436052A04AECDEF3CF0CFEF8D
:107998003CF0C4EF3CF00350015C04500258D8A0FE
:1079A800D8EF3CF0DAEF3CF0DEEF3CF00350015E3C
:1079B8000450025AD89004320332052ECFEF3CF01F
:1079C80001C001F002C002F01200066A000E056E46
:1079D80003500410D8B4F3EF3CF0F5EF3CF01DEF82
:1079E8003DF0010E076EFDEF3CF0D89003360436EB
:1079F800072A04AE02EF3DF004EF3DF0F9EF3CF04A
:107A0800D890053606360350015C04500258D8A0B9
:107A180010EF3DF012EF3DF017EF3DF00350015E1F
:107A28000450025A0580D89004320332072E04EF1E
:107A38003DF005C001F006C002F0120013C008F0C6
:107A480014C009F0160E0A6EA7EC3DF0030E61ECA7
:107A58003CF0030E046E000E15EC3CF0F40E0F6EB5
:107A68007F0E106E88EC3CF0160E0F6E106A88ECD4
:107A78003CF0040E61EC3CF0040E046E000E15ECB4
:107A88003CF01550D8B44BEF3DF04DEF3DF055EFBD
:107A98003DF0E20E0F6E7F0E106E88EC3CF05BEF4F
:107AA8003DF0EB0E0F6E7F0E106E88EC3CF012006E
:107AB800BFEC3BF03BEC3CF0000E046E000E15EC06
:107AC8003CF0CA0E0F6E7F0E106E88EC3CF0010E73
:107AD800046E000E15EC3CF0D70E0F6E7F0E106E84
:107AE80088EC3CF0060E046E000E15EC3CF0B90E66
:107AF8000F6E7F0E106E88EC3CF0000EF2EC3BF03F
:107B080001C01FF002C020F01FC001F020C002F029
:107B1800D5EC3BF01E6E1FC013F020C014F01EC041
:107B280015F022EC3DF0030E1D6E080E1C6E770E4C
:107B3800E82EFED71C2EFCD71D2EFAD7000081EFA9
:107B48003DF0FEEF3FF0126A116A08500910D8A400
:107B5800B0EF3DF0B2EF3DF0DDEF3DF00A50D96EE9
:107B6800DA6A300EDF6E0A50D96EDA6A010ED9264B
:107B7800DF6A01EF3EF012500B0FD96EDA6A08C0C7
:107B880001F009C002F0046A0A0E036EB7EC3CF07B
:107B98000150300FDF6E08C001F009C002F0046A1E
:107BA8000A0E036EE9EC3CF001C008F002C009F0CF
:107BB800122A08500910D8A4E4EF3DF0E6EF3DF092
:107BC800BFEF3DF0F4EF3DF0120612500B0FD96EE7
:107BD800DA6A0A501124E16EE26ADFCFE7FF112A60
:107BE8001250D8A4FAEF3DF0FCEF3DF0E8EF3DF07D
:107BF8000A501124D96EDA6ADF6A1200020E096E81
:107C0800040E086EBA0EE82EFED7082EFCD7092EF1
:107C1800FAD700D0AE0E8DEC3BF0200E8DEC3BF089
:107C2800020E8DEC3BF0B00E8DEC3BF0C80E8DECE7
:107C38003BF0000E8DEC3BF0100E8DEC3BF0400E4F
:107C48008DEC3BF0810E8DEC3BF07F0E8DEC3BF024
:107C5800A10E8DEC3BF0A60E8DEC3BF0A80E8DEC42
:107C68003BF03F0E8DEC3BF0A40E8DEC3BF0D30EB9
:107C78008DEC3BF0000E8DEC3BF0D50E8DEC3BF01F
:107C8800800E8DEC3BF0D90E8DEC3BF0F10E8DECB7
:107C98003BF0DA0E8DEC3BF0120E8DEC3BF0DB0E78
:107CA8008DEC3BF0400E8DEC3BF08D0E8DEC3BF0F7
:107CB800140E8DEC3BF0AF0E8DEC3BF03BEC3CF042
:107CC80012000C6E0A0E0C18D8A46DEF3EF06FEF80
:107CD8003EF083EF3EF0226A070E216076EF3EF019
:107CE80078EF3EF07BEF3EF0212A7CEF3EF0216AF0
:107CF80021C004F0225015EC3CF0EBEF3EF00CC034
:107D08000EF01F0E0E648BEF3EF08DEF3EF095EFF8
:107D18003EF07F0E0E6493EF3EF095EF3EF097EF46
:107D28003EF03F0E0E6E7A0E22649DEF3EF09FEFFE
:107D38003EF0B1EF3EF0226A070E2160A6EF3EF05A
:107D4800A8EF3EF0ABEF3EF0212AACEF3EF0216AFF
:107D580021C004F0225015EC3CF0E00E0E24066E13
:107D6800076AFF0E0722050E0602F3CF08F0F4CFCC
:107D780009F00702F350092608C00AF009C00BF001
:107D880063EC3BF00D6AD90E066E7D0E076E0D5042
:107D98000626000E07220A5006260B50072206C0A8
:107DA800F6FF07C0F7FF0800F5504FEC3BF00D2A2F
:107DB800040E0D64E2EF3EF0E4EF3EF0C7EF3EF054
:107DC800000E4FEC3BF04CEC3BF0060E2226120066
:107DD80000000000000000005F000000070007002E
:107DE800147F147F14242A7F2A122313086462360E
:107DF800495522500005030000001C2241000041A3
:107E0800221C0014083E081408083E0808005030D8
:107E18000000080808080800606000002010080436
:107E2800023E5149453E00427F4000426151494669
:107E38002141454B311814127F1027454545393CDF
:107E48004A49493001710905033649494936064905
:107E580049291E0036360000005636000008142254
:107E68004100141414141400412214080201510989
:107E780006324979413E7E1111117E7F49494936C2
:107E88003E414141227F4141221C7F494949417F6E
:107E9800090909013E4149497A7F0808087F0041DC
:107EA8007F41002040413F017F081422417F40402C
:107EB80040407F020C027F7F0408107F3E41414111
:107EC8003E7F090909063E4151215E7F091929466D
:107ED800464949493101017F01013F4040403F1F68
:107EE8002040201F7F2018207F6314081463070890
:107EF8007008076151494543007F41410002040869
:107F080010200041417F000402010204404040402B
:107F180040000102040020545454787F48444438F7
:107F28003844444420384444487F3854545418084A
:107F38007E0901020C5252523E7F08040478004424
:107F48007D40002040443D007F1028440000417FD0
:107F580040007C041804787C0804047838444444BD
:107F6800387C14141408081414187C7C08040408B9
:107F78004854545420043F4440203C4040207C1C3A
:107F88002040201C3C4030403C44281028440C50E1
:107F980050503C4464544C44000836410000007F73
:107FA8000000004136080008082A1C0800000000EC
:107FB800004C4544204F4E3A203630302D31303277
:107FC80033005052414354494341204144430050F7
:107FD800494331384634353530004C45443A204F12
:107FE8004E20004C45443A204F4646004144433A0F
:037FF80020000066
:047FFC0054EF3BF013
:020000040030CA
:0E0000000008181EFF8181FF0FC00FE00F40A7
:00000001FF
