:04000000FEEF3FF0E0
:1072880070EC39F01200036E035095EC39F01200DF
:107298003B6A3A6A000EF86E000116EF3CF065ECA6
:1072A80039F0780E95EC39F0400E95EC39F0120073
:1072B80092809282010EC26E0D0EC16EAA0EC06E31
:1072C8001200B5EC39F0C580C5B06DEF39F06FEF3D
:1072D80039F068EF39F01200B5EC39F0C584C5B45F
:1072E80078EF39F07AEF39F073EF39F012009380C4
:1072F8009382800EC76E280EC66EC56A770EC86E5A
:107308009E961200036E65EC39F0780E95EC39F014
:10731800000E95EC39F0035095EC39F070EC39F02B
:107328001200026EB5EC39F09E9602C0C9FF9EA607
:10733800A0EF39F0A2EF39F09BEF39F09E96C550D7
:107348001200590E015C020E0258D8A0AEEF39F0B7
:10735800B0EF39F0B3EF39F08C80B4EF39F08C909E
:107368001200C5CF01F01F0E0116D8A4BEEF39F0E8
:10737800C0EF39F0B5EF39F0C7B4C5EF39F0C7EF52
:1073880039F0B5EF39F01200720ED36E070EB46EF5
:10739800B56A95908C905CEC39F0A00E016E860E63
:1073A800026E010E036E000E046E7BEC39F05DEC8C
:1073B8003DF01200056E0D0E0564E5EF39F0E7EFBC
:1073C80039F0E8EF39F0056AC30EC2160544E846FD
:1073D800FC0BC212140EE82EFED7C282C2B2F7EF1F
:1073E80039F0F9EF39F0F2EF39F0C450036EC350B9
:1073F800016E03C002F01200036A8C80020E026E56
:10740800860E016E990EE82EFED7012EFCD7022EAD
:10741800FAD700008C90020E026E860E016E990E4D
:10742800E82EFED7012EFCD7022EFAD70000032A39
:10743800020E036422EF3AF024EF3AF001EF3AF03B
:107448001200056E7F0E05642CEF3AF02EEF3AF02D
:107458002FEF3AF0056A070E046435EF3AF037EF7C
:107468003AF038EF3AF0046A05C03BF004C03AF04D
:107478000450B00F86EC39F005500F0B86EC39F04C
:1074880005380F0B0F0B100F86EC39F01200076A46
:1074980007C004F0000E25EC3AF053EC39F0066A08
:1074A800000E47EC39F0062A7F0E06645EEF3AF0CC
:1074B80060EF3AF054EF3AF044EC39F0072A070E3F
:1074C800076469EF3AF06BEF3AF04CEF3AF0000ED0
:1074D800046E000E25EC3AF01200076E070E0764E2
:1074E80078EF3AF07AEF3AF07CEF3AF097EF3AF02B
:1074F80007C004F0000E25EC3AF053EC39F0066AA8
:10750800000E47EC39F0062A7F0E06648EEF3AF03B
:1075180090EF3AF084EF3AF044EC39F007C004F009
:10752800000E25EC3AF01200AEEF3AF00FC0F6FF6D
:1075380010C0F7FFF86A070EF76403D00800F5508B
:1075480005D0F6CFE1FFF7CFE2FFE75036EC3EF08B
:107558000F4A102A0FC0F6FF10C0F7FFF86A070E8F
:10756800F76403D00800F55005D0F6CFE1FFF7CF58
:10757800E2FFE7500009D8A4C4EF3AF0C6EF3AF0AA
:107588009AEF3AF0120003500410D8B4CEEF3AF054
:10759800D0EF3AF0F4EF3AF0010E056ED8EF3AF07A
:1075A800D89003360436052A04AEDDEF3AF0DFEF53
:1075B8003AF0D4EF3AF00350015C04500258D8A0D6
:1075C800E8EF3AF0EAEF3AF0EEEF3AF00350015EF6
:1075D8000450025AD89004320332052EDFEF3AF0F5
:1075E80001C001F002C002F01200000E096E000E88
:1075F8000A6E000E0B6E000E0C6E01A006EF3BF03B
:1076080008EF3BF010EF3BF00550092606500A2220
:1076180007500B2208500C22D8900536063607363C
:107628000836D89004320332023201320150021077
:1076380003100410D8A423EF3BF025EF3BF001EF33
:107648003BF009C001F00AC002F00BC003F00CC007
:1076580004F01200000EDEEC39F001C020F002C088
:1076680021F020C001F021C002F0036A046A880EEC
:10767800056E130E066E000E076E000E086EF9EC0E
:107688003AF001C00DF002C00EF003C00FF004C0C4
:1076980010F0FF0E116E030E126E000E136E000E28
:1076A800146EB0EC3CF00DC01CF00EC01DF00FC005
:1076B8001EF010C01FF01CC01AF01DC01BF01200F5
:1076C800066A000E056E03500410D8B46EEF3BF046
:1076D80070EF3BF098EF3BF0010E076E78EF3BF050
:1076E800D89003360436072A04AE7DEF3BF07FEFCF
:1076F8003BF074EF3BF0D890053606360350015C3A
:1077080004500258D8A08BEF3BF08DEF3BF092EF7E
:107718003BF00350015E0450025A0580D8900432B1
:107728000332072E7FEF3BF005C001F006C002F0E0
:107738001200025007E1FB0E015CD8B0A6EF3BF047
:10774800A8EF3BF0ABEF3BF0000ED6EF3BF0910E0D
:10775800015C010E0258D8B0B4EF3BF0B6EF3BF035
:10776800B9EF3BF0010ED6EF3BF0590E015C020E6B
:107778000258D8B0C2EF3BF0C4EF3BF0C7EF3BF084
:10778800020ED6EF3BF0210E015C030E0258D8B072
:10779800D0EF3BF0D2EF3BF0D5EF3BF0030ED6EF46
:1077A8003BF0040E1200036EFEEF3BF0D10E016EAB
:1077B8007F0E026E15EF3CF08C0E016E7F0E026E8E
:1077C80015EF3CF0B70E016E7F0E026E15EF3CF020
:1077D800AA0E016E7F0E026E15EF3CF07D0E016E53
:1077E8007F0E026E15EF3CF0DD0E016E7F0E026E0D
:1077F80015EF3CF00350000AD8B4DAEF3BF0010A69
:10780800D8B4E0EF3BF0030AD8B4E6EF3BF0010A46
:10781800D8B4ECEF3BF0070AD8B4F2EF3BF0F8EF3E
:107828003BF01200C8EC39F000EC3AF04BEC3AF0BF
:10783800000E046E000E25EC3AF05B0E0F6E7F0E04
:10784800106E98EC3AF0010E046E000E25EC3AF03A
:10785800C40E0F6E7F0E106E98EC3AF02EEC3BF0D3
:107868001AC036F01BC037F0010EDEEC39F001C04B
:1078780038F002C039F038C001F039C002F0A5EC88
:1078880039F036C021F037C022F038C023F039C0B3
:1078980024F0C0EC3DF0070E356E170E346E6A0EFC
:1078A800E82EFED7342EFCD7352EFAD700D032EF8B
:1078B8003CF0FEEF3FF0206A13C001F014C002F064
:1078C800046A0A0E036E64EC3BF001C01CF002C0AF
:1078D8001DF013C001F014C002F0046A0A0E036E12
:1078E800C7EC3AF001C01EF002C01FF01CC008F03F
:1078F8001DC009F0160E0A6E02EC3DF08FEF3CF049
:107908002050160FD96EDA6A15502024E16EE26A0B
:10791800DFCFE7FF202A2050160FD96EDA6ADF5032
:10792800D8A499EF3CF09BEF3CF084EF3CF0155065
:107938002024D96EDA6A2E0EDF6E202A15502024F4
:10794800D96EDA6A1E50300FDF6E202A15502024B7
:10795800D96EDA6ADF6A1200000E156E000E166E16
:10796800000E176E000E186E11501210131014101E
:10797800D8B4C1EF3CF0C3EF3CF0F9EF3CF0010E96
:10798800196ECDEF3CF0D8901136123613361436F6
:10799800192A14AED2EF3CF0D4EF3CF0C7EF3CF01C
:1079A800D890153616361736183611500D5C125009
:1079B8000E5813500F5814501058D8A0E6EF3CF04A
:1079C800E8EF3CF0F1EF3CF011500D5E12500E5A0A
:1079D80013500F5A1450105A1580D890143213327D
:1079E80012321132192ED4EF3CF015C00DF016C02A
:1079F8000EF017C00FF018C010F01200126A116ACA
:107A080008500910D8A40BEF3DF00DEF3DF038EF0A
:107A18003DF00A50D96EDA6A300EDF6E0A50D96E20
:107A2800DA6A010ED926DF6A5CEF3DF012500B0FBF
:107A3800D96EDA6A08C001F009C002F0046A0A0EB9
:107A4800036EC7EC3AF00150300FDF6E08C001F04A
:107A580009C002F0046A0A0E036E64EC3BF001C030
:107A680008F002C009F0122A08500910D8A43FEF04
:107A78003DF041EF3DF01AEF3DF04FEF3DF01206BB
:107A880012500B0FD96EDA6A0A501124E16EE26ABD
:107A9800DFCFE7FF112A1250D8A455EF3DF057EF7A
:107AA8003DF043EF3DF00A501124D96EDA6ADF6ADF
:107AB8001200020E096E040E086EBA0EE82EFED7EA
:107AC800082EFCD7092EFAD700D0AE0E86EC39F076
:107AD800200E86EC39F0020E86EC39F0B00E86ECFA
:107AE80039F0C80E86EC39F0000E86EC39F0100E2D
:107AF80086EC39F0400E86EC39F0810E86EC39F0D0
:107B08007F0E86EC39F0A10E86EC39F0A60E86ECD5
:107B180039F0A80E86EC39F03F0E86EC39F0A40E49
:107B280086EC39F0D30E86EC39F0000E86EC39F08D
:107B3800D50E86EC39F0800E86EC39F0D90E86EC3D
:107B480039F0F10E86EC39F0DA0E86EC39F0120EC7
:107B580086EC39F0DB0E86EC39F0400E86EC39F015
:107B68008D0E86EC39F0140E86EC39F0AF0E86ECEB
:107B780039F04BEC3AF0120021C013F022C014F097
:107B8800250E156E5FEC3CF023C008F024C009F008
:107B98002D0E0A6E02EC3DF023C001F024C002F065
:107BA8009DEC3BF0336E030E71EC3AF0030E046E5D
:107BB800000E25EC3AF0F00E0F6E7F0E106E98EC6A
:107BC8003AF0250E0F6E106A98EC3AF0F70E0F6E29
:107BD8007F0E106E98EC3AF0040E71EC3AF0040E39
:107BE800046E000E25EC3AF0E80E0F6E7F0E106E54
:107BF80098EC3AF02D0E0F6E106A98EC3AF0050EDC
:107C080071EC3AF0050E046E000E25EC3AF0335094
:107C1800D7EC3BF001C00FF002C010F098EC3AF03E
:107C2800060E71EC3AF0060E046E000E25EC3AF0E2
:107C3800590E235C020E2458D8A025EF3EF027EFFA
:107C48003EF02FEF3EF09B0E0F6E7F0E106E98ECFD
:107C58003AF035EF3EF06D0E0F6E7F0E106E98EC19
:107C68003AF012000C6E0A0E0C18D8A43EEF3EF043
:107C780040EF3EF054EF3EF03B6A070E3A6047EFA4
:107C88003EF049EF3EF04CEF3EF03A2A4DEF3EF021
:107C98003A6A3AC004F03B5025EC3AF0BCEF3EF0AB
:107CA8000CC00EF01F0E0E645CEF3EF05EEF3EF06F
:107CB80066EF3EF07F0E0E6464EF3EF066EF3EF036
:107CC80068EF3EF03F0E0E6E7A0E3B646EEF3EF0AC
:107CD80070EF3EF082EF3EF03B6A070E3A6077EFB6
:107CE8003EF079EF3EF07CEF3EF03A2A7DEF3EF031
:107CF8003A6A3AC004F03B5025EC3AF0E00E0E2404
:107D0800066E076AFF0E0722050E0602F3CF08F07B
:107D1800F4CF09F00702F350092608C00AF009C099
:107D28000BF053EC39F00D6A7B0E066E7D0E076E74
:107D38000D500626000E07220A5006260B50072271
:107D480006C0F6FF07C0F7FF0800F55047EC39F00A
:107D58000D2A040E0D64B3EF3EF0B5EF3EF098EF38
:107D68003EF0000E47EC39F044EC39F0060E3B26A5
:107D7800120000000000000000005F000000070083
:107D88000700147F147F14242A7F2A1223130864FF
:107D98006236495522500005030000001C224100AC
:107DA8000041221C0014083E081408083E08080078
:107DB8005030000008080808080060600000201023
:107DC8000804023E5149453E00427F40004261514D
:107DD80049462141454B311814127F102745454526
:107DE800393C4A4949300171090503364949493640
:107DF800064949291E00363600000056360000089C
:107E0800142241001414141414004122140802010D
:107E1800510906324979413E7E1111117E7F494947
:107E280049363E414141227F4141221C7F4949490F
:107E3800417F090909013E4149497A7F0808087FBD
:107E480000417F41002040413F017F081422417FCB
:107E5800404040407F020C027F7F0408107F3E4173
:107E680041413E7F090909063E4151215E7F0919BA
:107E78002946464949493101017F01013F404040B7
:107E88003F1F2040201F7F2018207F6314081463A1
:107E980007087008076151494543007F41410002C6
:107EA800040810200041417F000402010204404000
:107EB800404040000102040020545454787F484454
:107EC80044383844444420384444487F385454544F
:107ED80018087E0901020C5252523E7F08040478A9
:107EE80000447D40002040443D007F1028440000AD
:107EF800417F40007C041804787C080404783844E6
:107F08004444387C14141408081414187C7C08049D
:107F180004084854545420043F4440203C40402026
:107F28007C1C2040201C3C4030403C442810284405
:107F38000C5050503C4464544C44000836410000F6
:107F4800007F0000004136080008082A1C080000CD
:107F580000000053495354454D4120414D42494585
:107F68004E54414C004C454420414C41524D413AFD
:107F7800204F46460041495245204D555920434F10
:107F88004E542E00414952452041434550544142E8
:107F98004C45004C454420414C41524D413A204FFC
:107FA8004E004149524520434F4E54414D2E004109
:107FB80049524520524547554C4152004C4D3335A6
:107FC800202B204D513133350041495245204C4931
:107FD8004D50494F0041495245204552524F520099
:107FE8004D513133353A200054454D503A20002048
:037FF80043000043
:047FFC004CEF39F01D
:020000040030CA
:0E0000000008181EFF8181FF0FC00FE00F40A7
:00000001FF
