:04000000FEEF3FF0E0
:106EEE00A4EC37F01200036E0350C9EC37F0120019
:106EFE00496A486A000EF86E000195EF3CF099EC75
:106F0E0037F0780EC9EC37F0400EC9EC37F01200AE
:106F1E00928092829284010EC26E0C0EC16EAA0EE7
:106F2E00C06E1200E9EC37F0C580C5B0A1EF37F0A6
:106F3E00A3EF37F09CEF37F01200E9EC37F0C58481
:106F4E00C5B4ACEF37F0AEEF37F0A7EF37F0120065
:106F5E0093809382800EC76E280EC66EC56A770E1A
:106F6E00C86E9E961200036E99EC37F0780EC9EC3F
:106F7E0037F0000EC9EC37F00350C9EC37F0A4EC33
:106F8E0037F01200026EE9EC37F09E9602C0C9FF90
:106F9E009EA6D4EF37F0D6EF37F0CFEF37F09E96B0
:106FAE00C55012007D0E015C010E0258D8B0E2EF02
:106FBE0037F0E4EF37F0E7EF37F08C8AE8EF37F091
:106FCE008C9A1200C5CF01F01F0E0116D8A4F2EF55
:106FDE0037F0F4EF37F0E9EF37F0C7B4F9EF37F0E9
:106FEE00FBEF37F0E9EF37F0120003C001F004C0F9
:106FFE0002F045EC3AF0076E0750DFEC38F0086E01
:10700E0008506DEC39F005C001F006C002F0D9EC65
:10701E0037F01200040E025CD8A018EF38F01AEF09
:10702E0038F01DEF38F0030E026E01680150FF08B4
:10703E00036E0250D8A0E82A0308046E03C001F0C4
:10704E0004C002F01200720ED36E070EB46EB56A53
:10705E00959095929594959695988C908C928C94FB
:10706E008C968C98959A8C9A8FEC37F0A00E016EB8
:10707E00860E026E010E036E000E046EAFEC37F03C
:10708E00F7EC3CF01200056E0D0E056451EF38F072
:10709E0053EF38F054EF38F0056AC30EC2160544AC
:1070AE00E846FC0BC212140EE82EFED7C282C2B204
:1070BE0063EF38F065EF38F05EEF38F0C450036ED2
:1070CE00C350016E03C002F01200056E7F0E056400
:1070DE0073EF38F075EF38F076EF38F0056A070E7B
:1070EE0004647CEF38F07EEF38F07FEF38F0046AFE
:1070FE0005C049F004C048F00450B00FBAEC37F0A8
:10710E0005500F0BBAEC37F005380F0B0F0B100FA5
:10711E00BAEC37F01200076A07C004F0000E6CECF0
:10712E0038F086EC37F0066A000E7AEC37F0062A55
:10713E007F0E0664A5EF38F0A7EF38F09BEF38F01E
:10714E0077EC37F0072A070E0764B0EF38F0B2EF8E
:10715E0038F093EF38F0000E046E000E6CEC38F041
:10716E001200076E070E0764BFEF38F0C1EF38F05C
:10717E00C3EF38F0DEEF38F007C004F0000E6CEC11
:10718E0038F086EC37F0066A000E7AEC37F0062AF5
:10719E007F0E0664D5EF38F0D7EF38F0CBEF38F02E
:1071AE0077EC37F007C004F0000E6CEC38F01200EC
:1071BE00016EF4EF38F0010E0BEF39F0020E0BEF0B
:1071CE0039F0030E0BEF39F0040E0BEF39F0050E0C
:1071DE000BEF39F0000E0BEF39F00150000AD8B466
:1071EE00E2EF38F0010AD8B4E5EF38F0030AD8B46C
:1071FE00E8EF38F0010AD8B4EBEF38F0070AD8B44C
:10720E00EEEF38F0F1EF38F0120022EF39F00FC048
:10721E00F6FF10C0F7FFF86A070EF76403D00800F8
:10722E00F55005D0F6CFE1FFF7CFE2FFE7505AEC6D
:10723E003DF00F4A102A0FC0F6FF10C0F7FFF86A94
:10724E00070EF76403D00800F55005D0F6CFE1FF26
:10725E00F7CFE2FFE7500009D8A438EF39F03AEF44
:10726E0039F00EEF39F0120003500410D8B442EF8B
:10727E0039F044EF39F068EF39F0010E056E4CEF3E
:10728E0039F0D89003360436052A04AE51EF39F0A2
:10729E0053EF39F048EF39F00350015C04500258B7
:1072AE00D8A05CEF39F05EEF39F062EF39F00350A1
:1072BE00015E0450025AD89004320332052E53EF69
:1072CE0039F001C001F002C002F01200016E8C9084
:1072DE008C928C948C968C980150D8B479EF39F0AE
:1072EE007BEF39F07CEF39F08C80010E016482EF78
:1072FE0039F084EF39F085EF39F08C82020E01649B
:10730E008BEF39F08DEF39F08EEF39F08C84030E60
:10731E00016494EF39F096EF39F097EF39F08C86DF
:10732E00040E01649DEF39F09FEF39F0A0EF39F0B4
:10733E008C881200000E096E000E0A6E000E0B6E87
:10734E00000E0C6E01A0AEEF39F0B0EF39F0B8EFD1
:10735E0039F00550092606500A2207500B22085014
:10736E000C22D8900536063607360836D8900432E9
:10737E000332023201320150021003100410D8A45D
:10738E00CBEF39F0CDEF39F0A9EF39F009C001F0AC
:10739E000AC002F00BC003F00CC004F01200000E85
:1073AE004AEC38F001C020F002C021F020C001F0FC
:1073BE0021C002F0036A046A880E056E130E066E73
:1073CE00000E076E000E086EA1EC39F001C00DF034
:1073DE0002C00EF003C00FF004C010F0FF0E116ECD
:1073EE00030E126E000E136E000E146E88EC3BF040
:1073FE000DC01CF00EC01DF00FC01EF010C01FF00F
:10740E001CC01AF01DC01BF01200066A000E056E9D
:10741E0003500410D8B416EF3AF018EF3AF040EFDC
:10742E003AF0010E076E20EF3AF0D890033604368C
:10743E00072A04AE25EF3AF027EF3AF01CEF3AF0A8
:10744E00D890053606360350015C04500258D8A079
:10745E0033EF3AF035EF3AF03AEF3AF00350015E7F
:10746E000450025A0580D89004320332072E27EFBB
:10747E003AF005C001F006C002F01200025007E11A
:10748E00C90E015CD8B04EEF3AF050EF3AF053EF20
:10749E003AF0000E7EEF3AF0910E015C010E0258AA
:1074AE00D8B05CEF3AF05EEF3AF061EF3AF0010ED1
:1074BE007EEF3AF0BD0E015C020E0258D8B06AEFB4
:1074CE003AF06CEF3AF06FEF3AF0020E7EEF3AF0D0
:1074DE00850E015C030E0258D8B078EF3AF07AEFC1
:1074EE003AF07DEF3AF0030E7EEF3AF0040E120002
:1074FE00025007E1FB0E015CD8B088EF3AF08AEF3C
:10750E003AF08DEF3AF0000EB8EF3AF0910E015CC2
:10751E00010E0258D8B096EF3AF098EF3AF09BEF82
:10752E003AF0010EB8EF3AF0590E015C020E025815
:10753E00D8B0A4EF3AF0A6EF3AF0A9EF3AF0020E67
:10754E00B8EF3AF0210E015C030E0258D8B0B2EF3C
:10755E003AF0B4EF3AF0B7EF3AF0030EB8EF3AF074
:10756E00040E1200036EE0EF3AF09E0E016E7F0ED7
:10757E00026EF7EF3AF0DC0E016E7F0E026EF7EF41
:10758E003AF0B40E016E7F0E026EF7EF3AF0C80EAF
:10759E00016E7F0E026EF7EF3AF0860E016E7F0ED1
:1075AE00026EF7EF3AF0BE0E016E7F0E026EF7EF2F
:1075BE003AF00350000AD8B4BCEF3AF0010AD8B43E
:1075CE00C2EF3AF0030AD8B4C8EF3AF0010AD8B4C1
:1075DE00CEEF3AF0070AD8B4D4EF3AF0DAEF3AF039
:1075EE001200036E1FEF3BF0920E016E7F0E026EC5
:1075FE0036EF3BF0320E016E7F0E026E36EF3BF031
:10760E00790E016E7F0E026E36EF3BF06C0E016E40
:10761E007F0E026E36EF3BF0230E016E7F0E026E72
:10762E0036EF3BF0A90E016E7F0E026E36EF3BF089
:10763E000350000AD8B4FBEF3AF0010AD8B401EFB8
:10764E003BF0030AD8B407EF3BF0010AD8B40DEFB4
:10765E003BF0070AD8B413EF3BF019EF3BF01200E2
:10766E00206A13C001F014C002F0046A0A0E036E01
:10767E000CEC3AF001C01CF002C01DF013C001F07A
:10768E0014C002F0046A0A0E036E3BEC39F001C01E
:10769E001EF002C01FF01CC008F01DC009F0160E2F
:1076AE000A6EDAEC3BF067EF3BF02050160FD96E06
:1076BE00DA6A15502024E16EE26ADFCFE7FF202A56
:1076CE002050160FD96EDA6ADF50D8A471EF3BF056
:1076DE0073EF3BF05CEF3BF015502024D96EDA6A65
:1076EE002E0EDF6E202A15502024D96EDA6A1E5017
:1076FE00300FDF6E202A15502024D96EDA6ADF6A29
:10770E001200000E156E000E166E000E176E000E95
:10771E00186E1150121013101410D8B499EF3BF0CC
:10772E009BEF3BF0D1EF3BF0010E196EA5EF3BF056
:10773E00D8901136123613361436192A14AEAAEF13
:10774E003BF0ACEF3BF09FEF3BF0D8901536163682
:10775E001736183611500D5C12500E5813500F5824
:10776E0014501058D8A0BEEF3BF0C0EF3BF0C9EF5D
:10777E003BF011500D5E12500E5A13500F5A14500A
:10778E00105A1580D8901432133212321132192E2B
:10779E00ACEF3BF015C00DF016C00EF017C00FF099
:1077AE0018C010F01200126A116A08500910D8A4FD
:1077BE00E3EF3BF0E5EF3BF010EF3CF00A50D96EF3
:1077CE00DA6A300EDF6E0A50D96EDA6A010ED926E9
:1077DE00DF6A34EF3CF012500B0FD96EDA6A08C034
:1077EE0001F009C002F0046A0A0E036E3BEC39F098
:1077FE000150300FDF6E08C001F009C002F0046ABC
:10780E000A0E036E0CEC3AF001C008F002C009F04B
:10781E00122A08500910D8A417EF3CF019EF3CF0CB
:10782E00F2EF3BF027EF3CF0120612500B0FD96E21
:10783E00DA6A0A501124E16EE26ADFCFE7FF112AFD
:10784E001250D8A42DEF3CF02FEF3CF01BEF3CF084
:10785E000A501124D96EDA6ADF6A12008C80020E89
:10786E00026E380E016EAD0EE82EFED7012EFCD73D
:10787E00022EFAD700008C82020E026E380E016EB6
:10788E00AD0EE82EFED7012EFCD7022EFAD7000041
:10789E008C84020E026E380E016EAD0EE82EFED7EF
:1078AE00012EFCD7022EFAD700008C86020E026E35
:1078BE00380E016EAD0EE82EFED7012EFCD7022E2D
:1078CE00FAD700008C88020E026E380E016EAD0ED5
:1078DE00E82EFED7012EFCD7022EFAD700008C8A96
:1078EE00040E026E0C0E016E340EE82EFED7012E23
:1078FE00FCD7022EFAD78C908C928C948C968C9806
:10790E008C9A030E026E080E016E770EE82EFED7CD
:10791E00012EFCD7022EFAD7000012002AEC38F006
:10792E0035EC3CF092EC38F0000E046E080E6CEC68
:10793E0038F0110E0F6E7F0E106E0CEC39F0010E3A
:10794E00046E080E6CEC38F0410E0F6E7F0E106E4A
:10795E000CEC39F0D6EC39F01AC044F01BC045F0EF
:10796E00010E4AEC38F001C040F002C041F0020EA8
:10797E004AEC38F001C042F002C043F042C001F0C0
:10798E0043C002F011EC38F001C046F002C047F0DF
:10799E0046C003F047C004F044C005F045C006F0F1
:1079AE00FCEC37F044C021F045C022F040C023F07B
:1079BE0041C024F046C025F047C026F0E1EC3DF072
:1079CE00070E3F6E170E3E6E6A0EE82EFED73E2E47
:1079DE00FCD73F2EFAD700D0B1EF3CF0FEEF3FF0D0
:1079EE00020E096E040E086EBA0EE82EFED7082E91
:1079FE00FCD7092EFAD700D0AE0EBAEC37F0200E17
:107A0E00BAEC37F0020EBAEC37F0B00EBAEC37F033
:107A1E00C80EBAEC37F0000EBAEC37F0100EBAEC16
:107A2E0037F0400EBAEC37F0810EBAEC37F07F0E1D
:107A3E00BAEC37F0A10EBAEC37F0A60EBAEC37F06E
:107A4E00A80EBAEC37F03F0EBAEC37F0A40EBAEC33
:107A5E0037F0D30EBAEC37F0000EBAEC37F0D50E85
:107A6E00BAEC37F0800EBAEC37F0D90EBAEC37F02C
:107A7E00F10EBAEC37F0DA0EBAEC37F0120EBAECB1
:107A8E0037F0DB0EBAEC37F0400EBAEC37F08D0E55
:107A9E00BAEC37F0140EBAEC37F0AF0EBAEC37F092
:107AAE0092EC38F012000C6E0A0E0C18D8A462EF8D
:107ABE003DF064EF3DF078EF3DF0496A070E486007
:107ACE006BEF3DF06DEF3DF070EF3DF0482A71EF3A
:107ADE003DF0486A48C004F049506CEC38F0E0EFD5
:107AEE003DF00CC00EF01F0E0E6480EF3DF082EFE5
:107AFE003DF08AEF3DF07F0E0E6488EF3DF08AEF89
:107B0E003DF08CEF3DF03F0E0E6E7A0E496492EF13
:107B1E003DF094EF3DF0A6EF3DF0496A070E486048
:107B2E009BEF3DF09DEF3DF0A0EF3DF0482AA1EF19
:107B3E003DF0486A48C004F049506CEC38F0E00E55
:107B4E000E24066E076AFF0E0722050E0602F3CFFD
:107B5E0008F0F4CF09F00702F350092608C00AF026
:107B6E0009C00BF086EC37F00D6A310E066E7D0EF5
:107B7E00076E0D500626000E07220A5006260B50E1
:107B8E00072206C0F6FF07C0F7FF0800F5507AEC93
:107B9E0037F00D2A040E0D64D7EF3DF0D9EF3DF00E
:107BAE00BCEF3DF0000E7AEC37F077EC37F0060EB6
:107BBE004926120021C013F022C014F0270E156EB4
:107BCE0037EC3BF023C008F024C009F02F0E0A6EEC
:107BDE00DAEC3BF025C008F026C009F0350E0A6E2F
:107BEE00DAEC3BF023C001F024C002F07FEC3AF057
:107BFE003B6E25C001F026C002F045EC3AF03D6E1A
:107C0E003D50DFEC38F03C6E020EB8EC38F0020E50
:107C1E00046E080E6CEC38F0F70E0F6E7F0E106EC1
:107C2E000CEC39F0270E0F6E106A0CEC39F0EE0EDC
:107C3E000F6E7F0E106E0CEC39F02F0E0F6E106A59
:107C4E000CEC39F0030EB8EC38F0030E046E080E8F
:107C5E006CEC38F03B50F8EC3AF001C00FF002C07B
:107C6E0010F00CEC39F0040EB8EC38F0040E046E83
:107C7E00080E6CEC38F0E50E0F6E7F0E106E0CECED
:107C8E0039F0350E0F6E106A0CEC39F0050EB8ECAB
:107C9E0038F0050E046E080E6CEC38F03D50B9EC61
:107CAE003AF001C00FF002C010F00CEC39F0060EE5
:107CBE00B8EC38F0060E046E080E6CEC38F0D20EEE
:107CCE000F6E7F0E106E0CEC39F03C50300F5AECEC
:107CDE003DF0F40E0F6E7F0E106E0CEC39F0070EA9
:107CEE00B8EC38F0070E046E080E6CEC38F07D0E12
:107CFE00215C010E2258D8B087EF3EF089EF3EF09E
:107D0E0091EF3EF0500E0F6E7F0E106E0CEC39F0B0
:107D1E0097EF3EF05E0E0F6E7F0E106E0CEC39F08C
:107D2E00120000000000000000005F0000000700CD
:107D3E000700147F147F14242A7F2A122313086449
:107D4E006236495522500005030000001C224100F6
:107D5E000041221C0014083E081408083E080800C2
:107D6E00503000000808080808006060000020106D
:107D7E000804023E5149453E00427F400042615197
:107D8E0049462141454B311814127F102745454570
:107D9E00393C4A494930017109050336494949368A
:107DAE00064949291E0036360000005636000008E6
:107DBE001422410014141414140041221408020158
:107DCE00510906324979413E7E1111117E7F494992
:107DDE0049363E414141227F4141221C7F4949495A
:107DEE00417F090909013E4149497A7F0808087F08
:107DFE0000417F41002040413F017F081422417F16
:107E0E00404040407F020C027F7F0408107F3E41BD
:107E1E0041413E7F090909063E4151215E7F091904
:107E2E002946464949493101017F01013F40404001
:107E3E003F1F2040201F7F2018207F6314081463EB
:107E4E0007087008076151494543007F4141000210
:107E5E00040810200041417F00040201020440404A
:107E6E00404040000102040020545454787F48449E
:107E7E0044383844444420384444487F3854545499
:107E8E0018087E0901020C5252523E7F08040478F3
:107E9E0000447D40002040443D007F1028440000F7
:107EAE00417F40007C041804787C08040478384430
:107EBE004444387C14141408081414187C7C0804E8
:107ECE0004084854545420043F4440203C40402071
:107EDE007C1C2040201C3C4030403C442810284450
:107EEE000C5050503C4464544C4400083641000041
:107EFE00007F0000004136080008082A1C08000018
:107F0E0000000053495354454D4120414D424945CF
:107F1E004E54414C0041495245204D555920434F36
:107F2E004E542E0041495245204143455054414242
:107F3E004C45004C4D3335204D51313335204C5589
:107F4E005A004C45442054454D503A204F4E200087
:107F5E004C45442054454D503A204F464600414929
:107F6E00524520434F4E54414D2E0041495245201B
:107F7E00524547554C4152004C555A20494E544596
:107F8E004E53410041495245204C494D50494F00F6
:107F9E004D5559204F534355524F0041495245209C
:107FAE004552524F52004C555A204D4544494100BE
:107FBE004C555A204552524F52004D554348412080
:107FCE004C555A004C454453204C555A3A00504F8C
:107FDE004341204C555A004C555A204144433A00D7
:0D7FEE0043204D513A002F3500543A000059
:047FFC007FEF37F0EC
:020000040030CA
:0E0000000008181EFF8181FF0FC00FE00F40A7
:00000001FF
