:04000000FEEF3FF0E0
:1073F20024EC3AF01200036E035049EC3AF012000A
:107402003A6A396A000EF86E0001F4EF3CF092809D
:10741200010EC26E0E0EC16EAA0EC06E120019ECE3
:107422003AF0780E49EC3AF0400E49EC3AF012008C
:1074320069EC3AF0C580C5B021EF3AF023EF3AF09B
:107442001CEF3AF0120069EC3AF0C584C5B42CEF97
:107452003AF02EEF3AF027EF3AF01200938093823F
:10746200800EC76E280EC66EC56A770EC86E9E96CF
:107472001200036E19EC3AF0780E49EC3AF0000E65
:1074820049EC3AF0035049EC3AF024EC3AF012009D
:10749200026E69EC3AF09E9602C0C9FF9EA654EFB6
:1074A2003AF056EF3AF04FEF3AF09E96C55012007E
:1074B2002C0E015C010E0258D8A062EF3AF064EF84
:1074C2003AF067EF3AF08C8068EF3AF08C90120055
:1074D200C5CF01F01F0E0116D8A472EF3AF074EF77
:1074E2003AF069EF3AF0C7B479EF3AF07BEF3AF04D
:1074F20069EF3AF01200720ED36E070EB46EB56ADF
:1075020095908C9008EC3AF0A00E016E860E026EF9
:10751200010E036E000E046E2FEC3AF000EC3EF00A
:107522001200056E0D0E056499EF3AF09BEF3AF0EA
:107532009CEF3AF0056AC30EC2160544E846FC0BFE
:10754200C212140EE82EFED7C282C2B2ABEF3AF0DC
:10755200ADEF3AF0A6EF3AF0C450036EC350016E9D
:1075620003C002F01200036A8C80020E026E860EC5
:10757200016E990EE82EFED7012EFCD7022EFAD705
:1075820000008C90020E026E860E016E990EE82E9D
:10759200FED7012EFCD7022EFAD70000032A020ED4
:1075A2000364D6EF3AF0D8EF3AF0B5EF3AF01200B2
:1075B200056E7F0E0564E0EF3AF0E2EF3AF0E3EF9A
:1075C2003AF0056A070E0464E9EF3AF0EBEF3AF09D
:1075D200ECEF3AF0046A05C03AF004C039F0045006
:1075E200B00F3AEC3AF005500F0B3AEC3AF005388E
:1075F2000F0B0F0B100F3AEC3AF01200076A07C09C
:1076020004F0000ED9EC3AF010EC3AF0066A000EE3
:10761200FCEC39F0062A7F0E066412EF3BF014EF01
:107622003BF008EF3BF0F9EC39F0072A070E07644C
:107632001DEF3BF01FEF3BF000EF3BF0000E046E3E
:10764200000ED9EC3AF01200076E070E07642CEF19
:107652003BF02EEF3BF030EF3BF04BEF3BF007C03F
:1076620004F0000ED9EC3AF010EC3AF0066A000E83
:10767200FCEC39F0062A7F0E066442EF3BF044EF41
:107682003BF038EF3BF0F9EC39F007C004F0000EA4
:10769200D9EC3AF0120062EF3BF00FC0F6FF10C0D7
:1076A200F7FFF86A070EF76403D00800F55005D01B
:1076B200F6CFE1FFF7CFE2FFE75063EC3EF00F4A6F
:1076C200102A0FC0F6FF10C0F7FFF86A070EF76422
:1076D20003D00800F55005D0F6CFE1FFF7CFE2FF67
:1076E200E7500009D8A478EF3BF07AEF3BF04EEF79
:1076F2003BF0120003500410D8B482EF3BF084EF49
:107702003BF0A8EF3BF0010E056E8CEF3BF0D890FA
:1077120003360436052A04AE91EF3BF093EF3BF0BB
:1077220088EF3BF00350015C04500258D8A09CEF54
:107732003BF09EEF3BF0A2EF3BF00350015E0450A2
:10774200025AD89004320332052E93EF3BF001C067
:1077520001F002C002F01200000E096E000E0A6E65
:10776200000E0B6E000E0C6E01A0BAEF3BF0BCEFE8
:107772003BF0C4EF3BF00550092606500A220750A1
:107782000B2208500C22D8900536063607360836EA
:10779200D890043203320232013201500210031037
:1077A2000410D8A4D7EF3BF0D9EF3BF0B5EF3BF094
:1077B20009C001F00AC002F00BC003F00CC004F0D3
:1077C2001200000E92EC3AF001C020F002C021F04B
:1077D20020C001F021C002F0036A046A880E056E1F
:1077E200130E066E000E076E000E086EADEC3BF037
:1077F20001C00DF002C00EF003C00FF004C010F083
:10780200FF0E116E030E126E000E136E000E146E3A
:10781200A2EC3CF00DC01CF00EC01DF00FC01EF01B
:1078220010C01FF01CC01AF01DC01BF01200066A27
:10783200000E056E03500410D8B422EF3CF024EF82
:107842003CF04CEF3CF0010E076E2CEF3CF0D89070
:1078520003360436072A04AE31EF3CF033EF3CF036
:1078620028EF3CF0D890053606360350015C0450F0
:107872000258D8A03FEF3CF041EF3CF046EF3CF01D
:107882000350015E0450025A0580D890043203323C
:10789200072E33EF3CF005C001F006C002F01200E3
:1078A200206A13C001F014C002F0046A0A0E036ECB
:1078B20018EC3CF001C01CF002C01DF013C001F036
:1078C20014C002F0046A0A0E036E7BEC3BF001C0A6
:1078D2001EF002C01FF01CC008F01DC009F0160EF9
:1078E2000A6E47EC3DF081EF3CF02050160FD96E46
:1078F200DA6A15502024E16EE26ADFCFE7FF202A20
:107902002050160FD96EDA6ADF50D8A48BEF3CF004
:107912008DEF3CF076EF3CF015502024D96EDA6AF8
:107922002E0EDF6E202A15502024D96EDA6A1E50E0
:10793200300FDF6E202A15502024D96EDA6ADF6AF2
:107942001200000E156E000E166E000E176E000E5F
:10795200186E1150121013101410D8B4B3EF3CF07B
:10796200B5EF3CF0EBEF3CF0010E196EBFEF3CF0CF
:10797200D8901136123613361436192A14AEC4EFC3
:107982003CF0C6EF3CF0B9EF3CF0D8901536163615
:107992001736183611500D5C12500E5813500F58EE
:1079A20014501058D8A0D8EF3CF0DAEF3CF0E3EFD7
:1079B2003CF011500D5E12500E5A13500F5A1450D3
:1079C200105A1580D8901432133212321132192EF5
:1079D200C6EF3CF015C00DF016C00EF017C00FF048
:1079E20018C010F012007CEC3AF0B4EC3AF0FFEC64
:1079F2003AF0000E046E000ED9EC3AF0C40E0F6E8F
:107A02007F0E106E4CEC3BF0010E046E000ED9ECB2
:107A12003AF0D00E0F6E7F0E106E4CEC3BF0060E5D
:107A2200046E000ED9EC3AF0B50E0F6E7F0E106E9A
:107A32004CEC3BF0000E92EC3AF001C035F002C083
:107A420036F0E2EC3BF01AC037F01BC038F037C01A
:107A520001F038C002F059EC3AF035C021F036C0DE
:107A620022F037C023F038C024F0A2EC3DF0060E1D
:107A7200346E130E336EAE0EE82EFED7332EFCD7C5
:107A8200342EFAD71BEF3DF0FEEF3FF0126A116A77
:107A920008500910D8A450EF3DF052EF3DF07DEFB1
:107AA2003DF00A50D96EDA6A300EDF6E0A50D96E96
:107AB200DA6A010ED926DF6AA1EF3DF012500B0FF0
:107AC200D96EDA6A08C001F009C002F0046A0A0E2F
:107AD200036E7BEC3BF00150300FDF6E08C001F00B
:107AE20009C002F0046A0A0E036E18EC3CF001C0F1
:107AF20008F002C009F0122A08500910D8A484EF35
:107B02003DF086EF3DF05FEF3DF094EF3DF0120661
:107B120012500B0FD96EDA6A0A501124E16EE26A32
:107B2200DFCFE7FF112A1250D8A49AEF3DF09CEF65
:107B32003DF088EF3DF00A501124D96EDA6ADF6A0F
:107B4200120021C008F022C009F02D0E0A6E47EC87
:107B52003DF023C013F024C014F0250E156E51EC35
:107B62003CF0030E25EC3BF0030E046E000ED9EC44
:107B72003AF0F40E0F6E7F0E106E4CEC3BF02D0EB1
:107B82000F6E106A4CEC3BF0040E25EC3BF0040E39
:107B9200046E000ED9EC3AF0ED0E0F6E7F0E106EF1
:107BA2004CEC3BF0250E0F6E106A4CEC3BF0C10E14
:107BB2000F6E7F0E106E4CEC3BF0050E25EC3BF089
:107BC200050E046E000ED9EC3AF02C0E235C010E69
:107BD2002458D8A0EFEF3DF0F1EF3DF0F9EF3DF082
:107BE200DB0E0F6E7F0E106E4CEC3BF0FFEF3DF0A4
:107BF200E40E0F6E7F0E106E4CEC3BF01200020E84
:107C0200096E040E086EBA0EE82EFED7082EFCD7B7
:107C1200092EFAD700D0AE0E3AEC3AF0200E3AEC2A
:107C22003AF0020E3AEC3AF0B00E3AEC3AF0C80EE4
:107C32003AEC3AF0000E3AEC3AF0100E3AEC3AF026
:107C4200400E3AEC3AF0810E3AEC3AF07F0E3AEC02
:107C52003AF0A10E3AEC3AF0A60E3AEC3AF0A80E3F
:107C62003AEC3AF03F0E3AEC3AF0A40E3AEC3AF023
:107C7200D30E3AEC3AF0000E3AEC3AF0D50E3AEC6A
:107C82003AF0800E3AEC3AF0D90E3AEC3AF0F10EB4
:107C92003AEC3AF0DA0E3AEC3AF0120E3AEC3AF0EA
:107CA200DB0E3AEC3AF0400E3AEC3AF08D0E3AEC3A
:107CB2003AF0140E3AEC3AF0AF0E3AEC3AF0FFEC2E
:107CC2003AF012000C6E0A0E0C18D8A46BEF3EF0BC
:107CD2006DEF3EF081EF3EF03A6A070E396074EFC5
:107CE2003EF076EF3EF079EF3EF0392A7AEF3EF041
:107CF200396A39C004F03A50D9EC3AF0E9EF3EF073
:107D02000CC00EF01F0E0E6489EF3EF08BEF3EF0BA
:107D120093EF3EF07F0E0E6491EF3EF093EF3EF054
:107D220095EF3EF03F0E0E6E7A0E3A649BEF3EF0F8
:107D32009DEF3EF0AFEF3EF03A6A070E3960A4EFD6
:107D42003EF0A6EF3EF0A9EF3EF0392AAAEF3EF050
:107D5200396A39C004F03A50D9EC3AF0E00E0E24F8
:107D6200066E076AFF0E0722050E0602F3CF08F021
:107D7200F4CF09F00702F350092608C00AF009C03F
:107D82000BF010EC3AF00D6AD50E066E7D0E076E02
:107D92000D500626000E07220A5006260B50072217
:107DA20006C0F6FF07C0F7FF0800F550FCEC39F0FB
:107DB2000D2A040E0D64E0EF3EF0E2EF3EF0C5EF57
:107DC2003EF0000EFCEC39F0F9EC39F0060E3A26E2
:107DD200120000000000000000005F000000070029
:107DE2000700147F147F14242A7F2A1223130864A5
:107DF2006236495522500005030000001C22410052
:107E02000041221C0014083E081408083E0808001D
:107E120050300000080808080800606000002010C8
:107E22000804023E5149453E00427F4000426151F2
:107E320049462141454B311814127F1027454545CB
:107E4200393C4A49493001710905033649494936E5
:107E5200064949291E003636000000563600000841
:107E620014224100141414141400412214080201B3
:107E7200510906324979413E7E1111117E7F4949ED
:107E820049363E414141227F4141221C7F494949B5
:107E9200417F090909013E4149497A7F0808087F63
:107EA20000417F41002040413F017F081422417F71
:107EB200404040407F020C027F7F0408107F3E4119
:107EC20041413E7F090909063E4151215E7F091960
:107ED2002946464949493101017F01013F4040405D
:107EE2003F1F2040201F7F2018207F631408146347
:107EF20007087008076151494543007F414100026C
:107F0200040810200041417F0004020102044040A5
:107F1200404040000102040020545454787F4844F9
:107F220044383844444420384444487F38545454F4
:107F320018087E0901020C5252523E7F080404784E
:107F420000447D40002040443D007F102844000052
:107F5200417F40007C041804787C0804047838448B
:107F62004444387C14141408081414187C7C080443
:107F720004084854545420043F4440203C404020CC
:107F82007C1C2040201C3C4030403C4428102844AB
:107F92000C5050503C4464544C440008364100009C
:107FA200007F0000004136080008082A1C08000073
:107FB20000000054656D70207265616C20656E2052
:107FC200430053454E534F52204C4D3335005049D8
:107FD2004331384634353530004C45443A204F4E13
:107FE20020004C45443A204F46460054454D503AF5
:097FF20020004144433A20000044
:047FFC0001EF3AF067
:020000040030CA
:0E0000000008181EFF8181FF0FC00FE00F40A7
:00000001FF
