:04000000FEEF3FF0E0
:106E22004AEC37F01200959C8C9C1200036E0350C2
:106E32008DEC37F01200496A486A000EF86E0001C4
:106E420064EF3CF03FEC37F0780E8DEC37F0400EFB
:106E52008DEC37F0120004C001F005C002F07DECA9
:106E620037F060EC37F01200928092829284010E29
:106E7200C26E0C0EC16EAA0EC06E1200ADEC37F0DF
:106E8200C580C5B047EF37F049EF37F042EF37F032
:106E92001200ADEC37F0C584C5B452EF37F054EFB1
:106EA20037F04DEF37F0120093809382800EC76E59
:106EB200280EC66EC56A770EC86E9E961200036EC5
:106EC2000350D8B467EF37F069EF37F06CEF37F063
:106ED2008C8C6DEF37F08C9C1200036E3FEC37F018
:106EE200780E8DEC37F0000E8DEC37F003508DEC00
:106EF20037F04AEC37F01200210E015C030E025803
:106F0200D8A086EF37F088EF37F08BEF37F0010E1D
:106F12008CEF37F0000E1200026EADEC37F09E9649
:106F220002C0C9FF9EA698EF37F09AEF37F093EFB1
:106F320037F09E96C55012007D0E015C010E02587C
:106F4200D8B0A6EF37F0A8EF37F0ABEF37F08C8A66
:106F5200ACEF37F08C9A1200C5CF01F01F0E01166C
:106F6200D8A4B6EF37F0B8EF37F0ADEF37F0C7B4CB
:106F7200BDEF37F0BFEF37F0ADEF37F01200040E80
:106F8200025CD8A0C7EF37F0C9EF37F0CCEF37F08B
:106F9200030E026E01680150FF08036E0250D8A072
:106FA200E82A0308046E03C001F004C002F01200D4
:106FB20006C001F007C002F011EC3AF00C6E0C5062
:106FC200ABEC38F00D6E0D5039EC39F008C001F021
:106FD20009C002F09DEC37F00AC004F00BC005F0C6
:106FE2002CEC37F01200056E0D0E0564FBEF37F046
:106FF200FDEF37F0FEEF37F0056AC30EC216054407
:10700200E846FC0BC212140EE82EFED7C282C2B2B0
:107012000DEF38F00FEF38F008EF38F0C450036E80
:10702200C350016E03C002F01200720ED36E070E3F
:10703200B46EB56A959095929594959695988C9024
:107042008C928C948C968C98959A8C9A14EC37F03E
:1070520035EC37F0A00E016E860E026E010E036E45
:10706200000E046E55EC37F001EC3CF01200056E98
:107072007F0E05643FEF38F041EF38F042EF38F011
:10708200056A070E046448EF38F04AEF38F04BEF18
:1070920038F0046A05C049F004C048F00450B00F4B
:1070A2006EEC37F005500F0B6EEC37F005380F0B16
:1070B2000F0B100F6EEC37F01200076A07C004F0D6
:1070C200000E38EC38F023EC37F0066A000E17ECAD
:1070D20037F0062A7F0E066471EF38F073EF38F04E
:1070E20067EF38F011EC37F0072A070E07647CEFE0
:1070F20038F07EEF38F05FEF38F0000E046E000ECD
:1071020038EC38F01200076E070E07648BEF38F088
:107112008DEF38F08FEF38F0AAEF38F007C004F0A7
:10712200000E38EC38F023EC37F0066A000E17EC4C
:1071320037F0062A7F0E0664A1EF38F0A3EF38F08D
:1071420097EF38F011EC37F007C004F0000E38EC7E
:1071520038F01200016EC0EF38F0010ED7EF38F0B0
:10716200020ED7EF38F0030ED7EF38F0040ED7EF48
:1071720038F0050ED7EF38F0000ED7EF38F0015097
:10718200000AD8B4AEEF38F0010AD8B4B1EF38F043
:10719200030AD8B4B4EF38F0010AD8B4B7EF38F024
:1071A200070AD8B4BAEF38F0BDEF38F01200EEEFAC
:1071B20038F00FC0F6FF10C0F7FFF86A070EF76449
:1071C20003D00800F55005D0F6CFE1FFF7CFE2FF7C
:1071D200E7503CEC3DF00F4A102A0FC0F6FF10C0FA
:1071E200F7FFF86A070EF76403D00800F55005D0E0
:1071F200F6CFE1FFF7CFE2FFE7500009D8A404EF92
:1072020039F006EF39F0DAEF38F0120003500410CB
:10721200D8B40EEF39F010EF39F034EF39F0010E37
:10722200056E18EF39F0D89003360436052A04AEFD
:107232001DEF39F01FEF39F014EF39F00350015C04
:1072420004500258D8A028EF39F02AEF39F02EEF77
:1072520039F00350015E0450025AD89004320332CE
:10726200052E1FEF39F001C001F002C002F012003A
:10727200016E8C908C928C948C968C980150D8B420
:1072820045EF39F047EF39F048EF39F08C80010EC5
:1072920001644EEF39F050EF39F051EF39F08C8242
:1072A200020E016457EF39F059EF39F05AEF39F015
:1072B2008C84030E016460EF39F062EF39F063EF02
:1072C20039F08C86040E016469EF39F06BEF39F006
:1072D2006CEF39F08C881200000E096E000E0A6EF7
:1072E200000E0B6E000E0C6E01A07AEF39F07CEFEF
:1072F20039F084EF39F00550092606500A2207506A
:107302000B2208500C22D89005360636073608366E
:10731200D8900432033202320132015002100310BB
:107322000410D8A497EF39F099EF39F075EF39F0DE
:1073320009C001F00AC002F00BC003F00CC004F057
:107342001200000EF4EC37F001C020F002C021F070
:1073520020C001F021C002F0036A046A880E056EA3
:10736200130E066E000E076E000E086E6DEC39F0FD
:1073720001C00DF002C00EF003C00FF004C010F007
:10738200FF0E116E030E126E000E136E000E146EBF
:1073920054EC3BF00DC01CF00EC01DF00FC01EF0EF
:1073A20010C01FF01CC01AF01DC01BF01200066AAC
:1073B200000E056E03500410D8B4E2EF39F0E4EF8A
:1073C20039F00CEF3AF0010E076EECEF39F0D8907D
:1073D20003360436072A04AEF1EF39F0F3EF39F041
:1073E200E8EF39F0D890053606360350015C0450B8
:1073F2000258D8A0FFEF39F001EF3AF006EF3AF069
:107402000350015E0450025A0580D89004320332C0
:10741200072EF3EF39F005C001F006C002F01200AA
:10742200025007E1C90E015CD8B01AEF3AF01CEF26
:107432003AF01FEF3AF0000E4AEF3AF0910E015C7B
:10744200010E0258D8B028EF3AF02AEF3AF02DEFA9
:107452003AF0010E4AEF3AF0BD0E015C020E0258FC
:10746200D8B036EF3AF038EF3AF03BEF3AF0020E8E
:107472004AEF3AF0850E015C030E0258D8B044EF91
:107482003AF046EF3AF049EF3AF0030E4AEF3AF09B
:10749200040E1200025007E1FB0E015CD8B054EF5B
:1074A2003AF056EF3AF059EF3AF0000E84EF3AF024
:1074B200910E015C010E0258D8B062EF3AF064EF0F
:1074C2003AF067EF3AF0010E84EF3AF0590E015CA0
:1074D200020E0258D8B070EF3AF072EF3AF075EF40
:1074E2003AF0020E84EF3AF0210E015C030E0258CC
:1074F200D8B07EEF3AF080EF3AF083EF3AF0030E25
:1075020084EF3AF0040E1200036EACEF3AF07E0EF6
:10751200016E7F0E026EC3EF3AF0BC0E016E7F0E5B
:10752200026EC3EF3AF0940E016E7F0E026EC3EF4D
:107532003AF0A80E016E7F0E026EC3EF3AF0660EAD
:10754200016E7F0E026EC3EF3AF09E0E016E7F0E49
:10755200026EC3EF3AF00350000AD8B488EF3AF053
:10756200010AD8B48EEF3AF0030AD8B494EF3AF095
:10757200010AD8B49AEF3AF0070AD8B4A0EF3AF069
:10758200A6EF3AF01200036EEBEF3AF0720E016EC4
:107592007F0E026E02EF3BF02E0E016E7F0E026E28
:1075A20002EF3BF0590E016E7F0E026E02EF3BF0CE
:1075B2004C0E016E7F0E026E02EF3BF01F0E016E4B
:1075C2007F0E026E02EF3BF0890E016E7F0E026E9D
:1075D20002EF3BF00350000AD8B4C7EF3AF0010AB9
:1075E200D8B4CDEF3AF0030AD8B4D3EF3AF0010A97
:1075F200D8B4D9EF3AF0070AD8B4DFEF3AF0E5EFA2
:107602003AF01200206A13C001F014C002F0046ABA
:107612000A0E036ED8EC39F001C01CF002C01DF056
:1076220013C001F014C002F0046A0A0E036E07ECE4
:1076320039F001C01EF002C01FF01CC008F01DC0CE
:1076420009F0160E0A6EA6EC3BF033EF3BF0205029
:10765200160FD96EDA6A15502024E16EE26ADFCF86
:10766200E7FF202A2050160FD96EDA6ADF50D8A41D
:107672003DEF3BF03FEF3BF028EF3BF0155020246D
:10768200D96EDA6A2E0EDF6E202A15502024D96EAA
:10769200DA6A1E50300FDF6E202A15502024D96E70
:1076A200DA6ADF6A1200000E156E000E166E000E08
:1076B200176E000E186E1150121013101410D8B459
:1076C20065EF3BF067EF3BF09DEF3BF0010E196E6B
:1076D20071EF3BF0D8901136123613361436192A50
:1076E20014AE76EF3BF078EF3BF06BEF3BF0D890C7
:1076F200153616361736183611500D5C12500E58C4
:1077020013500F5814501058D8A08AEF3BF08CEF4A
:107712003BF095EF3BF011500D5E12500E5A135094
:107722000F5A1450105A1580D89014321332123254
:107732001132192E78EF3BF015C00DF016C00EF085
:1077420017C00FF018C010F01200126A116A085028
:107752000910D8A4AFEF3BF0B1EF3BF0DCEF3BF008
:107762000A50D96EDA6A300EDF6E0A50D96EDA6AC2
:10777200010ED926DF6A00EF3CF012500B0FD96ED2
:10778200DA6A08C001F009C002F0046A0A0E036E48
:1077920007EC39F00150300FDF6E08C001F009C06C
:1077A20002F0046A0A0E036ED8EC39F001C008F048
:1077B20002C009F0122A08500910D8A4E3EF3BF0E6
:1077C200E5EF3BF0BEEF3BF0F3EF3BF01206125059
:1077D2000B0FD96EDA6A0A501124E16EE26ADFCF2A
:1077E200E7FF112A1250D8A4F9EF3BF0FBEF3BF070
:1077F200E7EF3BF00A501124D96EDA6ADF6A120011
:10780200020E096E040E086EBA0EE82EFED7082E7E
:10781200FCD7092EFAD700D0AE0E6EEC37F0200E50
:107822006EEC37F0020E6EEC37F0B00E6EEC37F005
:10783200C80E6EEC37F0000E6EEC37F0100E6EECE8
:1078420037F0400E6EEC37F0810E6EEC37F07F0EA3
:107852006EEC37F0A10E6EEC37F0A60E6EEC37F040
:10786200A80E6EEC37F03F0E6EEC37F0A40E6EEC05
:1078720037F0D30E6EEC37F0000E6EEC37F0D50E0B
:107882006EEC37F0800E6EEC37F0D90E6EEC37F0FE
:10789200F10E6EEC37F0DA0E6EEC37F0120E6EEC83
:1078A20037F0DB0E6EEC37F0400E6EEC37F08D0EDB
:1078B2006EEC37F0140E6EEC37F0AF0E6EEC37F064
:1078C2005EEC38F0120016EC38F0CAEC3CF05EECDC
:1078D20038F0000E046E080E38EC38F00D0E0F6E04
:1078E2007F0E106ED8EC38F0010E046E080E38ECE4
:1078F20038F03D0E0F6E7F0E106ED8EC38F0A2EC11
:1079020039F01AC042F01BC043F0010EF4EC37F01C
:1079120001C044F002C045F0020EF4EC37F001C0A1
:1079220040F002C041F040C001F041C002F0C0ECA2
:1079320037F001C046F002C047F046C006F047C02B
:1079420007F042C008F043C009F044C00AF045C045
:107952000BF0D9EC37F042C021F043C022F044C012
:1079620023F045C024F046C025F047C026F0C3EC02
:107972003DF0070E3F6E170E3E6E6A0EE82EFED7E2
:107982003E2EFCD73F2EFAD700D080EF3CF0FEEF20
:107992003FF08C80020E056E380E046EAD0EE82E9E
:1079A200FED7042EFCD7052EFAD700008C82020ED9
:1079B200056E380E046EAD0EE82EFED7042EFCD7EF
:1079C200052EFAD700008C84020E056E380E046E66
:1079D200AD0EE82EFED7042EFCD7052EFAD70000F6
:1079E2008C86020E056E380E046EAD0EE82EFED7A2
:1079F200042EFCD7052EFAD700008C88020E056EE5
:107A0200380E046EAD0EE82EFED7042EFCD7052EDE
:107A1200FAD700008C8A030E056E080E046E770EEC
:107A2200E82EFED7042EFCD7052EFAD70000010E51
:107A320060EC37F0030E056E8A0E046E560EE82EC9
:107A4200FED7042EFCD7052EFAD7000E60EC37F0D5
:107A52008C908C928C948C968C988C9A030E056EDA
:107A6200080E046E770EE82EFED7042EFCD7052EE4
:107A7200FAD7000012000C6E0A0E0C18D8A444EFBC
:107A82003DF046EF3DF05AEF3DF0496A070E48607F
:107A92004DEF3DF04FEF3DF052EF3DF0482A53EFEE
:107AA2003DF0486A48C004F0495038EC38F0C2EF63
:107AB2003DF00CC00EF01F0E0E6462EF3DF064EF5D
:107AC2003DF06CEF3DF07F0E0E646AEF3DF06CEF1F
:107AD2003DF06EEF3DF03F0E0E6E7A0E496474EF8C
:107AE2003DF076EF3DF088EF3DF0496A070E4860C1
:107AF2007DEF3DF07FEF3DF082EF3DF0482A83EFCE
:107B02003DF0486A48C004F0495038EC38F0E00EC5
:107B12000E24066E076AFF0E0722050E0602F3CF39
:107B220008F0F4CF09F00702F350092608C00AF062
:107B320009C00BF023EC37F00D6A2D0E066E7D0E98
:107B4200076E0D500626000E07220A5006260B501D
:107B5200072206C0F6FF07C0F7FF0800F55017EC32
:107B620037F00D2A040E0D64B9EF3DF0BBEF3DF086
:107B72009EEF3DF0000E17EC37F011EC37F0060ED9
:107B82004926120021C013F022C014F0270E156EF0
:107B920003EC3BF023C008F024C009F02F0E0A6E5C
:107BA200A6EC3BF025C008F026C009F0350E0A6E9F
:107BB200A6EC3BF023C001F024C002F04BEC3AF0FB
:107BC2003B6E25C001F026C002F011EC3AF03D6E8A
:107BD2003D50ABEC38F03C6E020E84EC38F0020EF5
:107BE200046E080E38EC38F0F80E0F6E7F0E106E31
:107BF200D8EC38F0270E0F6E106AD8EC38F0EF0E82
:107C02000F6E7F0E106ED8EC38F02F0E0F6E106ACA
:107C1200D8EC38F0030E84EC38F0030E046E080E34
:107C220038EC38F03B50C4EC3AF001C00FF002C01F
:107C320010F0D8EC38F0040E84EC38F0040E046E28
:107C4200080E38EC38F0CE0E0F6E7F0E106ED8ECA8
:107C520038F0350E0F6E106AD8EC38F0050E84EC51
:107C620038F0050E046E080E38EC38F03D5085EC05
:107C72003AF001C00FF002C010F0D8EC38F0060E56
:107C820084EC38F0060E046E080E38EC38F0B20EB2
:107C92000F6E7F0E106ED8EC38F03C50300F3CEC7B
:107CA2003DF0F50E0F6E7F0E106ED8EC38F0070E19
:107CB20084EC38F0070E046E080E38EC38F07D0EB6
:107CC200215C010E2258D8B069EF3EF06BEF3EF016
:107CD20073EF3EF0C50E0F6E7F0E106ED8EC38F0CB
:107CE20079EF3EF0D70E0F6E7F0E106ED8EC38F0A3
:107CF20023C001F024C002F07DEC37F00009D8B4B3
:107D020085EF3EF087EF3EF08FEF3EF0E80E0F6E0C
:107D12007F0E106ED8EC38F095EF3EF0E00E0F6E4D
:107D22007F0E106ED8EC38F0120000000000000048
:107D320000005F00000007000700147F147F142476
:107D42002A7F2A12231308646236495522500005FD
:107D5200030000001C2241000041221C0014083EC6
:107D6200081408083E0808005030000008080808F7
:107D720008006060000020100804023E5149453EA0
:107D820000427F400042615149462141454B311832
:107D920014127F1027454545393C4A494930017143
:107DA2000905033649494936064949291E0036362E
:107DB2000000005636000008142241001414141466
:107DC2001400412214080201510906324979413E48
:107DD2007E1111117E7F494949363E414141227F40
:107DE2004141221C7F494949417F090909013E411C
:107DF20049497A7F0808087F00417F4100204041BD
:107E02003F017F081422417F404040407F020C0224
:107E12007F7F0408107F3E4141413E7F09090906E8
:107E22003E4151215E7F091929464649494931019E
:107E3200017F01013F4040403F1F2040201F7F2023
:107E420018207F63140814630708700807615149FA
:107E52004543007F41410002040810200041417F58
:107E620000040201020440404040400001020400BC
:107E720020545454787F4844443838444444203889
:107E82004444487F3854545418087E0901020C5265
:107E920052523E7F0804047800447D400020404452
:107EA2003D007F1028440000417F40007C041804FC
:107EB200787C0804047838444444387C1414140848
:107EC200081414187C7C08040408485454542004F0
:107ED2003F4440203C4040207C1C2040201C3C4031
:107EE20030403C44281028440C5050503C446454C8
:107EF2004C44000836410000007F00000041360873
:107F02000008082A1C080000000000534953544589
:107F12004D4120414D4249454E54414C0041495248
:107F220045204D555920434F4E542E00414952454C
:107F320020414345505441424C45004C4D3335207D
:107F42004D51313335204C555A0041495245204359
:107F52004F4E54414D2E00414952452052454755FE
:107F62004C4152004C555A20494E54454E53410003
:107F720041495245204C494D50494F004D555920D9
:107F82004F534355524F0041495245204552524F9B
:107F920052004C555A204D45444941004C555A20F7
:107FA2004552524F52004D55434841204C555A00BC
:107FB2004C454453204C555A3A00504F4341204CB3
:107FC200555A00544C45443A4F4E20004C555A20C5
:107FD2004144433A00544C45443A4F4646002042FD
:107FE2005A3A4F46460020425A3A4F4E0043204DDD
:0E7FF200513A002F3500543A00001CEF37F0D2
:020000040030CA
:0E0000000008181EFF8181FF0FC00FE00F40A7
:00000001FF
