:04000000FEEF3FF0E0
:106FA000FDEC37F01200036E035031EC38F01200A4
:106FB000496A486A000EF86E0001C8EF3CF0F2EC36
:106FC00037F0780E31EC38F0400E31EC38F012002A
:106FD000928092829284010EC26E0C0EC16EAA0E35
:106FE000C06E120041EC38F0C580C5B0FAEF37F042
:106FF000FCEF37F0F5EF37F0120041EC38F0C584C4
:10700000C5B405EF38F007EF38F000EF38F01200A4
:1070100093809382800EC76E280EC66EC56A770E67
:10702000C86E9E961200036EF2EC37F0780E31ECCB
:1070300038F0000E31EC38F0035031EC38F0FDEC54
:1070400037F0120003C001F004C002F086EC3AF001
:10705000056E055020EC39F0066E0650AEEC39F0A6
:107060001200026E41EC38F09E9602C0C9FF9EA647
:107070003CEF38F03EEF38F037EF38F09E96C550D1
:107080001200C5CF01F01F0E0116D8A44AEF38F048
:107090004CEF38F041EF38F0C7B451EF38F053EF10
:1070A00038F041EF38F01200040E025CD8A05BEF1C
:1070B00038F05DEF38F060EF38F0030E026E0168D3
:1070C0000150FF08036E0250D8A0E82A0308046E9E
:1070D00003C001F004C002F01200720ED36E070E5E
:1070E000B46EB56A959095929594959695988C9076
:1070F0008C928C948C968C98E8EC37F0A00E016EF4
:10710000860E026E010E036E000E046E08EC38F05F
:1071100026EC3DF01200056E0D0E056492EF38F07E
:1071200094EF38F095EF38F0056AC30EC2160544A7
:10713000E846FC0BC212140EE82EFED7C282C2B281
:10714000A4EF38F0A6EF38F09FEF38F0C450036E8C
:10715000C350016E03C002F01200056E7F0E05647D
:10716000B4EF38F0B6EF38F0B7EF38F0056A070E35
:107170000464BDEF38F0BFEF38F0C0EF38F0046AB8
:1071800005C049F004C048F00450B00F13EC38F0CB
:1071900005500F0B13EC38F005380F0B0F0B100FC9
:1071A00013EC38F01200076A07C004F0000EADECD3
:1071B00038F0DFEC37F0066A000ED3EC37F0062A21
:1071C0007F0E0664E6EF38F0E8EF38F0DCEF38F0D9
:1071D000D0EC37F0072A070E0764F1EF38F0F3EF31
:1071E00038F0D4EF38F0000E046E000EADEC38F03D
:1071F0001200076E070E076400EF39F002EF39F056
:1072000004EF39F01FEF39F007C004F0000EADECC9
:1072100038F0DFEC37F0066A000ED3EC37F0062AC0
:107220007F0E066416EF39F018EF39F00CEF39F0E5
:10723000D0EC37F007C004F0000EADEC38F01200CF
:10724000016E35EF39F0010E4CEF39F0020E4CEFC4
:1072500039F0030E4CEF39F0040E4CEF39F0050E07
:107260004CEF39F0000E4CEF39F00150000AD8B461
:1072700023EF39F0010AD8B426EF39F0030AD8B465
:1072800029EF39F0010AD8B42CEF39F0070AD8B445
:107290002FEF39F032EF39F0120063EF39F00FC001
:1072A000F6FF10C0F7FFF86A070EF76403D0080076
:1072B000F55005D0F6CFE1FFF7CFE2FFE75089ECBC
:1072C0003DF00F4A102A0FC0F6FF10C0F7FFF86A12
:1072D000070EF76403D00800F55005D0F6CFE1FFA4
:1072E000F7CFE2FFE7500009D8A479EF39F07BEF40
:1072F00039F04FEF39F0120003500410D8B483EF87
:1073000039F085EF39F0A9EF39F0010E056E8DEFF8
:1073100039F0D89003360436052A04AE92EF39F0DE
:1073200094EF39F089EF39F00350015C04500258B2
:10733000D8A09DEF39F09FEF39F0A3EF39F003505B
:10734000015E0450025AD89004320332052E94EFA5
:1073500039F001C001F002C002F01200016E8C9001
:107360008C928C948C968C980150D8B4BAEF39F0EA
:10737000BCEF39F0BDEF39F08C80010E0164C3EF32
:1073800039F0C5EF39F0C6EF39F08C82020E016496
:10739000CCEF39F0CEEF39F0CFEF39F08C84030E1B
:1073A0000164D5EF39F0D7EF39F0D8EF39F08C869A
:1073B000040E0164DEEF39F0E0EF39F0E1EF39F06F
:1073C0008C881200000E096E000E0A6E000E0B6E05
:1073D000000E0C6E01A0EFEF39F0F1EF39F0F9EF8C
:1073E00039F00550092606500A2207500B22085092
:1073F0000C22D8900536063607360836D890043267
:107400000332023201320150021003100410D8A4DA
:107410000CEF3AF00EEF3AF0EAEF39F009C001F064
:107420000AC002F00BC003F00CC004F01200000E02
:107430008BEC38F001C020F002C021F020C001F038
:1074400021C002F0036A046A880E056E130E066EF0
:10745000000E076E000E086EE2EC39F001C00DF070
:1074600002C00EF003C00FF004C010F0FF0E116E4A
:10747000030E126E000E136E000E146EC9EC3BF07C
:107480000DC01CF00EC01DF00FC01EF010C01FF08C
:107490001CC01AF01DC01BF01200066A000E056E1B
:1074A00003500410D8B457EF3AF059EF3AF081EF97
:1074B0003AF0010E076E61EF3AF0D89003360436C9
:1074C000072A04AE66EF3AF068EF3AF05DEF3AF063
:1074D000D890053606360350015C04500258D8A0F7
:1074E00074EF3AF076EF3AF07BEF3AF00350015E3A
:1074F0000450025A0580D89004320332072E68EFF8
:107500003AF005C001F006C002F01200025007E197
:10751000C90E015CD8B08FEF3AF091EF3AF094EFDA
:107520003AF0000EBFEF3AF0910E015C010E0258E6
:10753000D8B09DEF3AF09FEF3AF0A2EF3AF0010E8B
:10754000BFEF3AF0BD0E015C020E0258D8B0ABEFAF
:107550003AF0ADEF3AF0B0EF3AF0020EBFEF3AF08A
:10756000850E015C030E0258D8B0B9EF3AF0BBEFBC
:107570003AF0BEEF3AF0030EBFEF3AF0040E1200FD
:10758000025007E1FB0E015CD8B0C9EF3AF0CBEF37
:107590003AF0CEEF3AF0000EF9EF3AF0910E015CBE
:1075A000010E0258D8B0D7EF3AF0D9EF3AF0DCEF3D
:1075B0003AF0010EF9EF3AF0590E015C020E025852
:1075C000D8B0E5EF3AF0E7EF3AF0EAEF3AF0020E22
:1075D000F9EF3AF0210E015C030E0258D8B0F3EF38
:1075E0003AF0F5EF3AF0F8EF3AF0030EF9EF3AF02F
:1075F000040E1200036E21EF3BF09E0E016E7F0E13
:10760000026E38EF3BF0DD0E016E7F0E026E38EF3A
:107610003BF0BF0E016E7F0E026E38EF3BF0D30ED3
:10762000016E7F0E026E38EF3BF0860E016E7F0E0C
:10763000026E38EF3BF0C90E016E7F0E026E38EF1E
:107640003BF00350000AD8B4FDEF3AF0010AD8B479
:1076500003EF3BF0030AD8B409EF3BF0010AD8B4BA
:107660000FEF3BF0070AD8B415EF3BF01BEF3BF0F0
:107670001200036E60EF3BF0920E016E7F0E026E01
:1076800077EF3BF04E0E016E7F0E026E77EF3BF010
:10769000790E016E7F0E026E77EF3BF06C0E016E7D
:1076A0007F0E026E77EF3BF03F0E016E7F0E026E93
:1076B00077EF3BF0A90E016E7F0E026E77EF3BF085
:1076C0000350000AD8B43CEF3BF0010AD8B442EFB3
:1076D0003BF0030AD8B448EF3BF0010AD8B44EEFB0
:1076E0003BF0070AD8B454EF3BF05AEF3BF01200DE
:1076F000206A13C001F014C002F0046A0A0E036E7F
:107700004DEC3AF001C01CF002C01DF013C001F0B6
:1077100014C002F0046A0A0E036E7CEC39F001C05A
:107720001EF002C01FF01CC008F01DC009F0160EAC
:107730000A6E6DEC3CF0A8EF3BF02050160FD96EAE
:10774000DA6A15502024E16EE26ADFCFE7FF202AD3
:107750002050160FD96EDA6ADF50D8A4B2EF3BF092
:10776000B4EF3BF09DEF3BF015502024D96EDA6A60
:107770002E0EDF6E202A15502024D96EDA6A1E5094
:10778000300FDF6E202A15502024D96EDA6ADF6AA6
:107790001200000E156E000E166E000E176E000E13
:1077A000186E1150121013101410D8B4DAEF3BF009
:1077B000DCEF3BF012EF3CF0010E196EE6EF3BF010
:1077C000D8901136123613361436192A14AEEBEF50
:1077D0003BF0EDEF3BF0E0EF3BF0D890153616367E
:1077E0001736183611500D5C12500E5813500F58A2
:1077F00014501058D8A0FFEF3BF001EF3CF00AEF17
:107800003CF011500D5E12500E5A13500F5A145086
:10781000105A1580D8901432133212321132192EA8
:10782000EDEF3BF015C00DF016C00EF017C00FF0D5
:1078300018C010F012008C80020E026E380E016E1D
:10784000AD0EE82EFED7012EFCD7022EFAD700008F
:107850008C82020E026E380E016EAD0EE82EFED73F
:10786000012EFCD7022EFAD700008C84020E026E85
:10787000380E016EAD0EE82EFED7012EFCD7022E7B
:10788000FAD700008C86020E026E380E016EAD0E25
:10789000E82EFED7012EFCD7022EFAD700008C88E6
:1078A000040E026E0C0E016E340EE82EFED7012E71
:1078B000FCD7022EFAD78C908C928C948C968C9854
:1078C000030E026E080E016E770EE82EFED7012E13
:1078D000FCD7022EFAD700001200126A116A085073
:1078E0000910D8A476EF3CF078EF3CF0A3EF3CF021
:1078F0000A50D96EDA6A300EDF6E0A50D96EDA6A33
:10790000010ED926DF6AC7EF3CF012500B0FD96E7B
:10791000DA6A08C001F009C002F0046A0A0E036EB8
:107920007CEC39F00150300FDF6E08C001F009C067
:1079300002F0046A0A0E036E4DEC3AF001C008F042
:1079400002C009F0122A08500910D8A4AAEF3CF08E
:10795000ACEF3CF085EF3CF0BAEF3CF01206125071
:107960000B0FD96EDA6A0A501124E16EE26ADFCF9A
:10797000E7FF112A1250D8A4C0EF3CF0C2EF3CF050
:10798000AEEF3CF00A501124D96EDA6ADF6A1200B9
:107990006DEC38F01BEC3CF0D3EC38F0000E046ECC
:1079A000000EADEC38F02D0E0F6E7F0E106E4DEC0C
:1079B00039F0010E046E000EADEC38F05D0E0F6E66
:1079C0007F0E106E4DEC39F017EC3AF01AC040F013
:1079D0001BC041F0010E8BEC38F001C042F002C038
:1079E00043F0020E8BEC38F001C044F002C045F0C9
:1079F00044C001F045C002F054EC38F001C046F03C
:107A000002C047F046C003F047C004F022EC38F053
:107A100040C021F041C022F042C023F043C024F016
:107A200046C025F047C026F010EC3EF0070E3F6E32
:107A3000170E3E6E6A0EE82EFED73E2EFCD73F2E66
:107A4000FAD700D0E4EF3CF0FEEF3FF0020E096EF3
:107A5000040E086EBA0EE82EFED7082EFCD7092EAB
:107A6000FAD700D0AE0E13EC38F0200E13EC38F03D
:107A7000020E13EC38F0B00E13EC38F0C80E13EC15
:107A800038F0000E13EC38F0100E13EC38F0400E06
:107A900013EC38F0810E13EC38F07F0E13EC38F055
:107AA000A10E13EC38F0A60E13EC38F0A80E13EC70
:107AB00038F03F0E13EC38F0A40E13EC38F0D30E70
:107AC00013EC38F0000E13EC38F0D50E13EC38F050
:107AD000800E13EC38F0D90E13EC38F0F10E13ECE5
:107AE00038F0DA0E13EC38F0120E13EC38F0DB0E2F
:107AF00013EC38F0400E13EC38F08D0E13EC38F028
:107B0000140E13EC38F0AF0E13EC38F0D3EC38F061
:107B100012000C6E0A0E0C18D8A491EF3DF093EFF2
:107B20003DF0A7EF3DF0496A070E48609AEF3DF03F
:107B30009CEF3DF09FEF3DF0482AA0EF3DF0486AF2
:107B400048C004F04950ADEC38F00FEF3EF00CC0E7
:107B50000EF01F0E0E64AFEF3DF0B1EF3DF0B9EF48
:107B60003DF07F0E0E64B7EF3DF0B9EF3DF0BBEF97
:107B70003DF03F0E0E6E7A0E4964C1EF3DF0C3EF4B
:107B80003DF0D5EF3DF0496A070E4860CAEF3DF081
:107B9000CCEF3DF0CFEF3DF0482AD0EF3DF0486A02
:107BA00048C004F04950ADEC38F0E00E0E24066EEB
:107BB000076AFF0E0722050E0602F3CF08F0F4CF86
:107BC00009F00702F350092608C00AF009C00BF0BB
:107BD000DFEC37F00D6A4D0E066E7D0E076E0D5010
:107BE0000626000E07220A5006260B50072206C062
:107BF000F6FF07C0F7FF0800F550D3EC37F00D2A69
:107C0000040E0D6406EF3EF008EF3EF0EBEF3DF0A2
:107C1000000ED3EC37F0D0EC37F0060E49261200F8
:107C200021C013F022C014F0270E156E78EC3BF043
:107C300023C008F024C009F02F0E0A6E6DEC3CF052
:107C400025C008F026C009F0350E0A6E6DEC3CF038
:107C500023C001F024C002F0C0EC3AF03B6E25C016
:107C600001F026C002F086EC3AF03D6E3D5020EC6B
:107C700039F03C6E020EF9EC38F0020E046E000E84
:107C8000ADEC38F0F80E0F6E7F0E106E4DEC39F043
:107C9000270E0F6E106A4DEC39F0EF0E0F6E7F0E4F
:107CA000106E4DEC39F02F0E0F6E106A4DEC39F05E
:107CB000030EF9EC38F0030E046E000EADEC38F054
:107CC0003B5039EC3BF001C00FF002C010F04DEC1E
:107CD00039F0040EF9EC38F0040E046E000EADEC31
:107CE00038F0E60E0F6E7F0E106E4DEC39F0350E4B
:107CF0000F6E106A4DEC39F0050EF9EC38F0050EF8
:107D0000046E000EADEC38F03D50FAEC3AF001C0D4
:107D10000FF002C010F04DEC39F0060EF9EC38F01F
:107D2000060E046E000EADEC38F0B40E0F6E7F0E32
:107D3000106E4DEC39F03C50300F89EC3DF0F50EF3
:107D40000F6E7F0E106E4DEC39F012000000000037
:107D5000000000005F00000007000700147F147F90
:107D600014242A7F2A1223130864623649552250AC
:107D70000005030000001C2241000041221C0014E9
:107D8000083E081408083E080800503000000808A3
:107D9000080808006060000020100804023E5149F5
:107DA000453E00427F400042615149462141454BDA
:107DB000311814127F1027454545393C4A4949304E
:107DC00001710905033649494936064949291E000A
:107DD0003636000000563600000814224100141404
:107DE0001414140041221408020151090632497981
:107DF000413E7E1111117E7F494949363E41414144
:107E0000227F4141221C7F494949417F09090901DB
:107E10003E4149497A7F0808087F00417F410020A0
:107E200040413F017F081422417F404040407F0293
:107E30000C027F7F0408107F3E4141413E7F0909CB
:107E400009063E4151215E7F0919294646494949A3
:107E50003101017F01013F4040403F1F2040201F72
:107E60007F2018207F6314081463070870080761D7
:107E700051494543007F4141000204081020004160
:107E8000417F0004020102044040404040000102E2
:107E9000040020545454787F4844443838444444BF
:107EA00020384444487F3854545418087E0901024D
:107EB0000C5252523E7F0804047800447D4000205A
:107EC00040443D007F1028440000417F40007C0476
:107ED0001804787C0804047838444444387C14142A
:107EE0001408081414187C7C0804040848545454DA
:107EF00020043F4440203C4040207C1C2040201C6B
:107F00003C4030403C44281028440C5050503C44E5
:107F100064544C44000836410000007F00000041DA
:107F200036080008082A1C080000000000534953C6
:107F300054454D4120414D4249454E54414C00412C
:107F4000495245204D555920434F4E542E0041492A
:107F5000524520414345505441424C45004C4D331D
:107F600035204D51313335204C555A004149524549
:107F700020434F4E54414D2E004149524520524519
:107F800047554C4152004C555A20494E54454E538A
:107F9000410041495245204C494D50494F004D55F3
:107FA00059204F534355524F0041495245204552A5
:107FB000524F52004C454453204C555A3A20004CE5
:107FC000555A204D45444941004C555A204552527E
:107FD0004F52004D55434841204C555A00504F4395
:107FE00041204C555A004C555A204144433A0043D5
:107FF000204D513A002F3500543A0000D8EF37F0A9
:020000040030CA
:0E0000000008181EFF8181FF0FC00FE00F40A7
:00000001FF
